:020000040000FA
:10000000103500208D0400009504000097040000C6
:10001000990400009B0400009D0400000000000003
:100020000000000000000000000000009F0400002D
:10003000A1040000000000005D040000ED040000C9
:10004000A7040000A9040000AB040000AD040000F8
:10005000AF040000B1040000B3040000B5040000C8
:10006000B7040000B9040000000000000000000018
:100070000000000000000000000000000000000080
:100080000000000000000000000000000000000070
:100090000000000000000000000000000000000060
:1000A0000000000000000000000000000000000050
:1003C00000F002F800F03AF80AA090E8000C82442D
:1003D0008344AAF10107DA4501D100F02FF8AFF20A
:1003E000090EBAE80F0013F0010F18BFFB1A43F013
:1003F000010318473406000054060000103A24BFD9
:1004000078C878C1FAD8520724BF30C830C144BF79
:1004100004680C60704700000023002400250026BB
:10042000103A28BF78C1FBD8520728BF30C148BF57
:100430000B6070471FB51FBD10B510BDDFF80CD0A5
:10044000FFF7F8FF00F068F800F03FF810350020E3
:1004500003B4FFF7F1FF03BC00F042F8EFF30980AB
:1004600020B120E9F00F07490968086005480649EE
:100470000A6802601068B0E8F00F80F309884EF057
:10048000040E704700000020040000200B48804745
:100490000B480047FEE7FEE7FEE7FEE7FEE7FEE764
:1004A000FEE7FEE7FEE7FEE7FEE7FEE7FEE7FEE724
:1004B000FEE7FEE7FEE7FEE7FEE70000F5040000CA
:1004C000C103000070477047704710B50446AFF392
:1004D00000802046BDE81040FFF7BABF704700001B
:1004E00001491820ABBEFEE72600020010B500F05F
:1004F000B3F910BD03480449086004480449086082
:10050000704700000000000008ED00E0001BB7008D
:100510001C00002000BFFEE708B500F089F915486F
:1005200000234FF0113214490090144800F0F8F8FD
:10053000134801234FF0223212490090124800F074
:10054000EFF80E48114908600F48486010481F2313
:10055000002210490090104800F0E2F80E480F49C0
:10056000086000F0CFF80E49086000F031F9002073
:1005700008BD000004110020A5080000EC000020C8
:100580000421002009090000F800002020000020BC
:100590001031002015050000042100200800002073
:1005A0000400002001238B4002689A4302607047D8
:1005B00000B50146087818B10878134A105C00BDF0
:1005C000088800F47F4030B10888C0F307200E4A45
:1005D000105C0830F3E7086800F47F0030B1086869
:1005E000C0F30740084A105C1030E8E7086800F0E4
:1005F0007F4028B10868000E034A105C1830DEE71F
:1006000000F007F8DBE70000280900000021016086
:1006100070472020704701238B4002681A43026014
:100620007047426812680A6042684A604268116016
:1006300041608268521C8260704740600060002107
:1006400081607047014600208A683AB14868426874
:10065000116042684A608A68521E8A607047406032
:100660000060704730B502461148006850434FF4AF
:100670007A71B0FBF1F0401E4FF0E021486148175D
:100680000721002804DB4B071C0E0A4B1C5406E014
:100690004B071D0E084B00F00F04241F1D5500BF13
:1006A00000204FF0E02188610720086130BD000084
:1006B0001C00002000E400E018ED00E070B50446E6
:1006C00000F014F8054607480068446005480068D3
:1006D00081680548FFF766FF284600F00DF800F036
:1006E00085F870BD000000200C00002000BFEFF373
:1006F0001081084672B6704700BF80F3108800BFB3
:100700007047000010B50448FFF752FF0446034845
:1007100050F8240010BD00000C0000202000002034
:100720002DE9F04105460F4690461E46069C4FF0C7
:100730008071201F04460160201F044607601421B9
:10074000201F044601601221201F0446016003217E
:10075000201F044601600221201F04460160012180
:10076000201F04460160201F0446C0F800801121AC
:10077000201F044601601021201F0446016009214A
:10078000201F044601600821201F04460160072144
:10079000201F044601600621201F04460160052138
:1007A000201F044601600421201F044601602C60C4
:1007B00000206860AE60044840F826503146034887
:1007C000FFF729FFBDE8F081200000200C00002089
:1007D000002080F3098800BFFF2003490870C80685
:1007E00001491E390860704722ED00E070B5FFF73F
:1007F0007DFF05460B480078002803DD2846FFF7FB
:100800007BFF70BDFFF77EFF044607480068844207
:1008100003D00648046000F017F82846FFF76CFF85
:1008200000BFEEE7100000200000002004000020C0
:1008300010B50020024908700248FFF7E7FE10BD1E
:10084000100000200C0000204FF08050014908608B
:100850007047000004ED00E070B5FFF747FF054664
:10086000002413E00D4850F82400406848B10B48BC
:1008700050F824004068401E084951F82410486090
:1008800003E021460648FFF7C6FE641C202CE9DB86
:100890002846FFF731FFFFF7A9FF70BD20000020B9
:1008A0000C0000200A20FFF7DDFE1448FFF7C5FE0C
:1008B00000240BE0124901EBC400FFF7D0FE104802
:1008C00000EBC4010D48FFF7ACFE641C082CF1DB03
:1008D000002403E00948FFF7B5FE641C082CF9DB8F
:1008E00000BF0020074908600120FFF7E7FE012054
:1008F00004490860FFF7E2FEF3E70000A0000020D3
:10090000AC0000201400002000BF00200549086052
:100910000120FFF7D3FE012002490860FFF7CEFE59
:10092000F3E7000018000020FF00010002000100B2
:1009300003000100020001000400010002000100A8
:100940000300010002000100050001000200010097
:100950000300010002000100040001000200010088
:100960000300010002000100060001000200010076
:100970000300010002000100040001000200010068
:100980000300010002000100050001000200010057
:100990000300010002000100040001000200010048
:1009A0000300010002000100070001000200010035
:1009B0000300010002000100040001000200010028
:1009C0000300010002000100050001000200010017
:1009D0000300010002000100040001000200010008
:1009E00003000100020001000600010002000100F6
:1009F00003000100020001000400010002000100E8
:100A000003000100020001000500010002000100D6
:100A100003000100020001000400010002000100C7
:100A20000300010002000100480A0000000000204D
:100A300020000000FC030000680A000020000020E5
:100A4000F034000018040000000000000000000066
:100A50000000000000000000000000000000000096
:080A600000000000001BB700BC
:04000005000003C133
:00000001FF
