:020000040000FA
:10000000F05E00208D0400009504000097040000BD
:10001000990400009B0400009D0400000000000003
:100020000000000000000000000000009F0400002D
:10003000A1040000000000005D040000ED040000C9
:10004000A7040000A9040000AB040000AD040000F8
:10005000AF040000B1040000B3040000B5040000C8
:10006000B7040000B9040000000000000000000018
:100070000000000000000000000000000000000080
:100080000000000000000000000000000000000070
:100090000000000000000000000000000000000060
:1000A0000000000000000000000000000000000050
:1003C00000F002F800F03AF80AA090E8000C82442D
:1003D0008344AAF10107DA4501D100F02FF8AFF20A
:1003E000090EBAE80F0013F0010F18BFFB1A43F013
:1003F00001031847480A0000680A0000103A24BFA9
:1004000078C878C1FAD8520724BF30C830C144BF79
:1004100004680C60704700000023002400250026BB
:10042000103A28BF78C1FBD8520728BF30C148BF57
:100430000B6070471FB51FBD10B510BDDFF80CD0A5
:10044000FFF7F8FF00F068F800F03FF8F05E0020DA
:1004500003B4FFF7F1FF03BC00F042F8EFF30980AB
:1004600020B120E9F00F07490968086005480649EE
:100470000A6802601068B0E8F00F80F309884EF057
:10048000040E704700000020040000200B48804745
:100490000B480047FEE7FEE7FEE7FEE7FEE7FEE764
:1004A000FEE7FEE7FEE7FEE7FEE7FEE7FEE7FEE724
:1004B000FEE7FEE7FEE7FEE7FEE70000F5040000CA
:1004C000C103000070477047704710B50446AFF392
:1004D00000802046BDE81040FFF7BABF704700001B
:1004E00001491820ABBEFEE72600020010B500F05F
:1004F00045FB10BD034804490860044804490860EE
:10050000704700000000000008ED00E0001BB7008D
:100510002400002000BFFEE708B500F0DBFA00F081
:1005200021FA00F0E1F809481F2300220849009051
:10053000084800F03FFA07480749086000F026FA2B
:100540000649086000F096FA002008BDF41100206A
:1005500015050000B4010020080000200400002060
:1005600001238B4002689A430260704700B5014640
:10057000087818B10878134A105C00BD088800F4A8
:100580007F4030B10888C0F307200E4A105C083065
:10059000F3E7086800F47F0030B10868C0F3074053
:1005A000084A105C1030E8E7086800F07F4028B186
:1005B0000868000E034A105C1830DEE700F007F808
:1005C000DBE700003C0D00000021016070472020A7
:1005D000704701238B4002681A430260704770B570
:1005E00004460D4600202070201D00F0DAF870BD92
:1005F0002DE9F04705460F4690464FF0000900F000
:10060000B9F98246281D00F0C3F8814612E0341F74
:1006100000206063A763C4F83C80E06920F47F0099
:10062000E061E06810B1204600F010FB204600F0C9
:100630006BFA00BF281D00F0C3F8061EE7D1504634
:1006400000F09EF94846BDE8F0872DE9F0410446E8
:100650000D46164600F08EF90746616B081D211DF8
:1006600000F0A4F800206063A563E663E06920F46D
:100670007F00E061384600F083F9BDE8F0812DE9A4
:10068000F04705460C4616461F46DDF8208000F070
:1006900071F98146E0693843E0616563A663002033
:1006A000E063204600F044FA211D281D00F066F8A2
:1006B000B8F1000F03D04146204600F0B7FA484693
:1006C00000F05EF9BDE8F08770B50446002500F043
:1006D00051F90646201D00F05BF80546304600F053
:1006E0004FF9284670BD000008B5124800234FF0AE
:1006F000113211490090114800F05CF910480123B3
:100700004FF022320F4900900F4800F053F90F4884
:1007100001234FF033320E4900900E4800F04AF9A1
:100720000D4801234FF044320C4900900C4800F072
:1007300041F908BDF4220020690C0000F4110020EA
:10074000F4320020CD0C000034120020F4420020CE
:10075000FD0C000074120020F45200201D0D00005A
:10076000B4120020426812680A6042684A60426817
:10077000116041608268521C826070474860026864
:100780000A600268516001608268521C8260704792
:10079000014688687047014600208A6802B14868AF
:1007A000704740600060002181607047D1E90032ED
:1007B0005A60D1E900231A608268521E8260704735
:1007C000014600208A683AB1486842681160426870
:1007D0004A608A68521E8A60704770B5054600F00C
:1007E000C9F80646032200212846FFF701FF044608
:1007F000304600F0C5F80CB100F04AF9204670BD53
:1008000070B505460C4600F0B5F8064605F11C002B
:10081000FFF7BEFF2060A86960606869A060284695
:10082000FFF752FFE060304600F0AAF870BD2DE9F6
:10083000F04704460F46154698463E4605FB0869B4
:10084000082D01D2BDE8F08703212046FFF7C7FE3F
:1008500027616561C4F8188004F11C00FFF7A1FF4F
:1008600008E0304600F038F8314604F11C00FFF78C
:1008700085FF2E444E45F4D300BFE3E7F8B50446A8
:100880000D46164600F076F8074604F11C00FFF707
:100890007FFF48B104F11C00FFF792FF2860384643
:1008A00000F06EF80020F8BD0323002209480096EE
:1008B00001682046FFF7E3FE384600F061F800F0DB
:1008C000E7F804480068806B286002480068C06B45
:1008D000E9E7000000000020406000607047000071
:1008E00030B502461148006850434FF47A71B0FBAE
:1008F000F1F0401E4FF0E021486148170721002821
:1009000004DB4B071C0E0A4B1C5406E04B071D0E64
:10091000084B00F00F04241F1D5500BF00204FF0AE
:10092000E02188610720086130BD0000240000201C
:1009300000E400E018ED00E070B5044600F01AF89D
:10094000054621460648006800F070F90448006832
:1009500000F0EEF8284600F013F800F099F870BDAA
:100960000000002010B50248FFF71BFF10BD00007B
:10097000A801002000BFEFF31081084672B670474F
:1009800000BF80F3108800BF7047000070B50748B3
:10099000FFF7ECFD044604EB4401054A02EB81003D
:1009A000FFF7F9FE0546281F70BD00000C0000206F
:1009B000280000202DE9F04105460E4617469846CE
:1009C000069C4FF08071201F04460160201F0446E2
:1009D00006601421201F044601601221201F0446D6
:1009E00001600321201F044601600221201F0446EC
:1009F00001600121201F04460160201F044607609A
:100A00001121201F044601601021201F04460160AF
:100A10000921201F044601600821201F04460160AF
:100A20000721201F044601600621201F04460160A3
:100A30000521201F044601600421201F0446016097
:100A40000A2028622C600020E860C5F81880E86160
:100A50006862A862E86285F83000281DFFF73CFF55
:100A600005F11000FFF738FF284600F04DF8BDE80B
:100A7000F0810000002080F3098800BFFF200349B7
:100A80000870C80601491E390860704722ED00E071
:100A900070B5FFF76FFF05460B480078002803DDAF
:100AA0002846FFF76DFF70BDFFF770FF044607484B
:100AB0000068844203D00648046000F057F82846D6
:100AC000FFF75EFF00BFEEE71000002000000020EF
:100AD0000400002010B50020084908700848FFF7FE
:100AE00073FD002407E004EB4401064A02EB810099
:100AF000FFF757FE641C202CF5DB10BD1000002012
:100B00000C0000202800002010B50446A16901EB6C
:100B10004101054A02EB8100211DFFF723FE034836
:100B2000A169FFF756FD10BD280000200C00002031
:100B300010B50446A16901EB41010A4A02EB8100AC
:100B4000211DFFF733FEA16901EB4101054A02EBCC
:100B50008100FFF71DFE18B90348A169FFF700FDEA
:100B600010BD0000280000200C0000204FF0805035
:100B7000014908607047000004ED00E070B5FFF720
:100B8000F9FE06462648456813E0A5F11004E06822
:100B9000401EE06060B9606B20B101220021204658
:100BA000FFF753FD204600F051F82046FFF7ACFF59
:100BB0006D681B488542E8D11A480068006A401EEB
:100BC00018490968086228BB16490968896901EB58
:100BD0004101154A02EB8100FFF7DAFDD0B111495E
:100BE0000968896901EB41010F4A02EB8100FFF7B7
:100BF000E7FD0C490968896901EB41010A4A02EBEA
:100C0000810008490968091DFFF7B8FD0A20054958
:100C1000096808623046FFF7B3FEFFF739FF70BD81
:100C2000A8010020000000202800002070B5044624
:100C30000D46E56004F110010348FFF79FFDE069F0
:100C400040F00400E06170BDA801002010B504462A
:100C500004F110010348FFF7A9FDE06920F004004A
:100C6000E06110BDA801002086B00A20FFF738FE21
:100C700000241423642212491248FFF7D8FD01A969
:100C80001048FFF7BDFD00BF05E0002205A90D4893
:100C9000FFF7F4FD641C142CF7DB002205A90948BA
:100CA000FFF7ECFD00BF0020074908600120FFF7B7
:100CB00043FE012004490860FFF73EFEF3E7000011
:100CC000F4520020C45A002014000020002400BF69
:100CD0000020084908600120FFF72EFE0120054989
:100CE0000860FFF729FE002CF2D10348FFF775FDDD
:100CF0000124EDE718000020C45A002000BF0020A6
:100D0000054908600120FFF717FE0120024908602D
:100D1000FFF712FEF3E700001C00002000BF0020D8
:100D2000054908600120FFF707FE0120024908601D
:100D3000FFF702FEF3E7000020000020FF000100A3
:100D40000200010003000100020001000400010094
:100D50000200010003000100020001000500010083
:100D60000200010003000100020001000400010074
:100D70000200010003000100020001000600010062
:100D80000200010003000100020001000400010054
:100D90000200010003000100020001000500010043
:100DA0000200010003000100020001000400010034
:100DB0000200010003000100020001000700010021
:100DC0000200010003000100020001000400010014
:100DD0000200010003000100020001000500010003
:100DE00002000100030001000200010004000100F4
:100DF00002000100030001000200010006000100E2
:100E000002000100030001000200010004000100D3
:100E100002000100030001000200010005000100C2
:100E200002000100030001000200010004000100B3
:100E30000200010003000100020001005C0E00003E
:100E40000000002028000000FC030000840E0000C9
:100E500028000020C85E0000180400000000000008
:100E60000000000000000000000000000000000082
:100E70000000000000000000000000000000000072
:040E8000001BB7009C
:04000005000003C133
:00000001FF
