:020000040000FA
:10000000B85700208D0400009504000097040000FC
:10001000990400009B0400009D0400000000000003
:100020000000000000000000000000009F0400002D
:10003000A1040000000000005D040000ED040000C9
:10004000A7040000A9040000AB040000AD040000F8
:10005000AF040000B1040000B3040000B5040000C8
:10006000B7040000B9040000000000000000000018
:100070000000000000000000000000000000000080
:100080000000000000000000000000000000000070
:100090000000000000000000000000000000000060
:1000A0000000000000000000000000000000000050
:1003C00000F002F800F03AF80AA090E8000C82442D
:1003D0008344AAF10107DA4501D100F02FF8AFF20A
:1003E000090EBAE80F0013F0010F18BFFB1A43F013
:1003F00001031847B8090000D8090000103A24BFCB
:1004000078C878C1FAD8520724BF30C830C144BF79
:1004100004680C60704700000023002400250026BB
:10042000103A28BF78C1FBD8520728BF30C148BF57
:100430000B6070471FB51FBD10B510BDDFF80CD0A5
:10044000FFF7F8FF00F068F800F03FF8B857002019
:1004500003B4FFF7F1FF03BC00F042F8EFF30980AB
:1004600020B120E9F00F07490968086005480649EE
:100470000A6802601068B0E8F00F80F309884EF057
:10048000040E704700000020040000200B48804745
:100490000B480047FEE7FEE7FEE7FEE7FEE7FEE764
:1004A000FEE7FEE7FEE7FEE7FEE7FEE7FEE7FEE724
:1004B000FEE7FEE7FEE7FEE7FEE70000F5040000CA
:1004C000C103000070477047704710B50446AFF392
:1004D00000802046BDE81040FFF7BABF704700001B
:1004E00001491820ABBEFEE72600020010B500F05F
:1004F00007FB10BD0348044908600448044908602C
:10050000704700000000000008ED00E0001BB7008D
:100510002400002000BFFEE708B500F09DFA00F0BF
:10052000E3F900F0B5F809481F23002208490090BC
:10053000084800F001FA07480749086000F0E8F9A8
:100540000649086000F058FA002008BDF4110020A8
:1005500015050000B4010020080000200400002060
:1005600001238B4002689A430260704700B5014640
:10057000087818B10878134A105C00BD088800F4A8
:100580007F4030B10888C0F307200E4A105C083065
:10059000F3E7086800F47F0030B10868C0F3074053
:1005A000084A105C1030E8E7086800F07F4028B186
:1005B0000868000E034A105C1830DEE700F007F808
:1005C000DBE70000AC0C0000002101607047202038
:1005D000704701238B4002681A430260704770B570
:1005E00004460D4600202070201D00F0AEF870BDBE
:1005F0002DE9F04104460D46164600F07DF9074608
:10060000616B081D211D00F0A5F800206063A56343
:10061000E663E06920F47F00E061384600F072F99B
:10062000BDE8F08170B50446002500F065F9064686
:10063000201D00F081F80546304600F063F9284699
:1006400070BD2DE9F04705460E46174600F054F9F7
:100650008146281D00F088F8B0F1000811D0A8F1FB
:10066000040400206063A663E763E06920F47F0070
:10067000E061E06810B1204600F0AAFA204600F0E0
:1006800005FA484600F03EF92046BDE8F087000034
:1006900008B5124800234FF011321149009011485B
:1006A00000F04AF9104801234FF022320F49009020
:1006B0000F4800F041F90F4801234FF033320E4943
:1006C00000900E4800F038F90D4801234FF04432F5
:1006D0000C4900900C4800F02FF908BDF4220020CE
:1006E000ED0B0000F4110020F43200204D0C00004E
:1006F00034120020F44200206D0C0000741200201F
:10070000F45200208D0C0000B412002042681268E0
:100710000A6042684A604268116041608268521C07
:1007200082607047486002680A6002685160016038
:100730008268521C82607047014688687047014693
:1007400000208A6802B1486870474060006000215C
:1007500081607047D1E900325A60D1E900231A6004
:100760008268521E82607047014600208A683AB152
:1007700048684268116042684A608A68521E8A600E
:10078000704770B505460C4600F0B6F80646286975
:100790002060E86960602846FFF744FFA0603046AB
:1007A00000F0B0F870BD70B504460E461546022143
:1007B0002046FFF714FF2662E56100206061A0611A
:1007C000206170BD2DE9F04104460D46164600F04B
:1007D00093F880462046FFF725FF70B10022294696
:1007E0002046FFF72EFF07461B49B869096889694B
:1007F000884201D200F00EF929E0E16920698842BF
:1008000005D3404600F07EF80420BDE8F08106F0F4
:10081000010068B1606918B9E069401E606102E0DA
:100820006069401E60616169206A40F821500BE0F8
:10083000A169481CA061206A40F82150D4E9060152
:10084000884201D30020A0612069401C20614046FD
:1008500000F058F80020D8E7000000204060006059
:100860007047000030B502461148006850434FF40D
:100870007A71B0FBF1F0401E4FF0E021486148175B
:100880000721002804DB4B071C0E0A4B1C5406E012
:100890004B071D0E084B00F00F04241F1D5500BF11
:1008A00000204FF0E02188610720086130BD000082
:1008B0002400002000E400E018ED00E070B50446DC
:1008C00000F01AF8054621460648006800F070F965
:1008D0000448006800F0EEF8284600F013F800F035
:1008E00099F870BD0000002010B50248FFF72DFFF9
:1008F00010BD0000A801002000BFEFF310810846E2
:1009000072B6704700BF80F3108800BF70470000C8
:1009100070B50748FFF72AFE044604EB4401054A78
:1009200002EB8100FFF70BFF0546281F70BD00009A
:100930000C000020280000202DE9F04105460E465D
:1009400017469846069C4FF08071201F04460160B0
:10095000201F044606601421201F04460160122156
:10096000201F044601600321201F0446016002216C
:10097000201F044601600121201F04460160201F42
:10098000044607601121201F044601601021201F2A
:10099000044601600921201F044601600821201F30
:1009A000044601600721201F044601600621201F24
:1009B000044601600521201F044601600421201F18
:1009C000044601600A2028622C600020E860C5F817
:1009D0001880E8616862A862E86285F83000281D26
:1009E000FFF73CFF05F11000FFF738FF284600F045
:1009F0004DF8BDE8F0810000002080F3098800BFB9
:100A0000FF2003490870C80601491E390860704775
:100A100022ED00E070B5FFF76FFF05460B48007848
:100A2000002803DD2846FFF76DFF70BDFFF770FF5C
:100A3000044607480068844203D00648046000F07A
:100A400057F82846FFF75EFF00BFEEE710000020D2
:100A5000000000200400002010B5002008490870A4
:100A60000848FFF7B1FD002407E004EB4401064A03
:100A700002EB8100FFF769FE641C202CF5DB10BD42
:100A8000100000200C0000202800002010B50446B3
:100A9000A16901EB4101054A02EB8100211DFFF72D
:100AA00035FE0348A169FFF794FD10BD2800002022
:100AB0000C00002010B50446A16901EB41010A4A6F
:100AC00002EB8100211DFFF745FEA16901EB410109
:100AD000054A02EB8100FFF72FFE18B90348A16910
:100AE000FFF73EFD10BD0000280000200C00002094
:100AF0004FF08050014908607047000004ED00E0AD
:100B000070B5FFF7F9FE06462648456813E0A5F1E3
:100B10001004E068401EE06060B9606B20B1012203
:100B200000212046FFF764FD204600F051F82046E2
:100B3000FFF7ACFF6D681B488542E8D11A48006892
:100B4000006A401E18490968086228BB16490968EE
:100B5000896901EB4101154A02EB8100FFF7ECFDC9
:100B6000D0B111490968896901EB41010F4A02EBD3
:100B70008100FFF7F9FD0C490968896901EB410122
:100B80000A4A02EB810008490968091DFFF7CAFDFE
:100B90000A200549096808623046FFF7B3FEFFF7EF
:100BA00039FF70BDA80100200000002028000020AF
:100BB00070B504460D46E56004F110010348FFF7E7
:100BC000B1FDE06940F00400E06170BDA8010020C3
:100BD00010B5044604F110010348FFF7BBFDE069BE
:100BE00020F00400E06110BDA80100200EB50A202D
:100BF000FFF738FE142211491148FFF7D4FD00BF5A
:100C000000240DE00F4840F8244000EB840100224E
:100C10000B48FFF7D7FD69460948FFF7B2FD641C92
:100C2000142CEFDB0020084908600120FFF746FE86
:100C3000012005490860FFF741FEE1E71853002055
:100C4000F4520020685300201400002000BF002050
:100C5000054908600120FFF731FE012002490860C4
:100C6000FFF72CFEF3E700001800002000BF002073
:100C7000054908600120FFF721FE012002490860B4
:100C8000FFF71CFEF3E700001C00002000BF00205F
:100C9000054908600120FFF711FE012002490860A4
:100CA000FFF70CFEF3E7000020000020FF0001002A
:100CB0000200010003000100020001000400010025
:100CC0000200010003000100020001000500010014
:100CD0000200010003000100020001000400010005
:100CE00002000100030001000200010006000100F3
:100CF00002000100030001000200010004000100E5
:100D000002000100030001000200010005000100D3
:100D100002000100030001000200010004000100C4
:100D200002000100030001000200010007000100B1
:100D300002000100030001000200010004000100A4
:100D40000200010003000100020001000500010093
:100D50000200010003000100020001000400010084
:100D60000200010003000100020001000600010072
:100D70000200010003000100020001000400010064
:100D80000200010003000100020001000500010053
:100D90000200010003000100020001000400010044
:100DA000020001000300010002000100CC0D000060
:100DB0000000002028000000FC030000F40D0000EB
:100DC00028000020905700001804000000000000D8
:100DD0000000000000000000000000000000000013
:100DE0000000000000000000000000000000000003
:040DF000001BB7002D
:04000005000003C133
:00000001FF
