:020000040000FA
:100000001834002081040000890400008B040000E3
:100010008D0400008F040000910400000000000027
:100020000000000000000000000000009304000039
:1000300095040000000000005D0400009904000029
:100040009B0400009D0400009F040000A104000028
:10005000A3040000A5040000A7040000A9040000F8
:10006000AB040000AD040000000000000000000030
:100070000000000000000000000000000000000080
:100080000000000000000000000000000000000070
:100090000000000000000000000000000000000060
:1000A0000000000000000000000000000000000050
:1003C00000F002F800F03AF80AA090E8000C82442D
:1003D0008344AAF10107DA4501D100F02FF8AFF20A
:1003E000090EBAE80F0013F0010F18BFFB1A43F013
:1003F00001031847A8010000C8010000103A24BFFB
:1004000078C878C1FAD8520724BF30C830C144BF79
:1004100004680C60704700000023002400250026BB
:10042000103A28BF78C1FBD8520728BF30C148BF57
:100430000B6070471FB51FBD10B510BDDFF80CD0A5
:10044000FFF7F8FF00F062F800F039F818340020E8
:1004500003B4FFF7F1FF03BC00F03CF80748006865
:10046000006820E9F00F05490968086004F10104FB
:1004700005F10105B0E8F00F704700BF0000002053
:100480000B4880470B480047FEE7FEE7FEE7FEE724
:10049000FEE7FEE7FEE7FEE7FEE7FEE7FEE7FEE734
:1004A000FEE7FEE7FEE7FEE7FEE7FEE7FEE7000009
:1004B000E1040000C103000070477047704710B5A9
:1004C0000446AFF300802046BDE81040FFF7C0BFF0
:1004D0007047000001491820ABBEFEE7260002006D
:1004E0000348044908600448044908607047000054
:1004F0000000000008ED00E040787D0114000020BD
:1005000000BF411E081EFCDC70470000114B4FF07D
:1005100011321149114800F031F8114B4FF02232DD
:100520001049114800F02AF810481149086008469F
:100530001049086000BF00200F4908606420FFF7E1
:10054000DFFF01200C4908606420FFF7D9FF00F0AD
:100550001BF8F0E718200020810500000C000020A7
:100560001830002085050000100000201810002021
:1005700008000020000000200400002003607047F5
:1005800000BFFEE700BFFEE7FF2003490870C80672
:1005900001491E390860704722ED00E0BC050000EB
:1005A0000000002018000000FC030000D40500003B
:1005B00018000020003400001804000000000000B3
:1005C000000000000000000000000000000000002B
:0405D00040787D01F1
:04000005000003C133
:00000001FF
