:020000040000FA
:10000000404600208D040000950400009704000085
:10001000990400009B0400009D0400000000000003
:100020000000000000000000000000009F0400002D
:10003000A1040000000000005D040000ED040000C9
:10004000A7040000A9040000AB040000AD040000F8
:10005000AF040000B1040000B3040000B5040000C8
:10006000B7040000B9040000000000000000000018
:100070000000000000000000000000000000000080
:100080000000000000000000000000000000000070
:100090000000000000000000000000000000000060
:1000A0000000000000000000000000000000000050
:1003C00000F002F800F03AF80AA090E8000C82442D
:1003D0008344AAF10107DA4501D100F02FF8AFF20A
:1003E000090EBAE80F0013F0010F18BFFB1A43F013
:1003F00001031847B4070000D4070000103A24BFD7
:1004000078C878C1FAD8520724BF30C830C144BF79
:1004100004680C60704700000023002400250026BB
:10042000103A28BF78C1FBD8520728BF30C148BF57
:100430000B6070471FB51FBD10B510BDDFF80CD0A5
:10044000FFF7F8FF00F06EF800F03FF8404600209C
:1004500003B4FFF7F1FF03BC00F042F8EFF30980AB
:1004600020B120E9F00F07490968086005480649EE
:100470000A6802601068B0E8F00F80F309884EF057
:10048000040E704700000020040000200B48804745
:100490000B480047FEE7FEE7FEE7FEE7FEE7FEE764
:1004A000FEE7FEE7FEE7FEE7FEE7FEE7FEE7FEE724
:1004B000FEE7FEE7FEE7FEE7FEE70000F5040000CA
:1004C000C103000070477047704710B50446AFF392
:1004D00000802046BDE81040FFF7BABF704700001B
:1004E00001491820ABBEFEE72600020010B500F05F
:1004F0003DFA10BD034804490860044804490860F7
:10050000704700000000000008ED00E0001BB7008D
:1005100020000020002000E0401CFF28FCDB70478A
:1005200000BFFEE708B500F0CDF900F00BF9174861
:1005300000234FF0113216490090164800F02AF9B6
:10054000154801234FF0223214490090144800F05E
:1005500021F9144801234FF0333213490090134816
:1005600000F018F912481F23002212490090124887
:1005700000F010F910481149086000F0F7F8104930
:10058000086000F06FF9002008BD00001C12002078
:100590004D0A0000B00100201C220020710A00005A
:1005A000D40100201C3200208D0A0000F801002038
:1005B00040420020210500001C32002008000020DD
:1005C0000400002001238B4002689A4302607047B8
:1005D00000B50146087818B10878134A105C00BDD0
:1005E000088800F47F4030B10888C0F307200E4A25
:1005F000105C0830F3E7086800F47F0030B1086849
:10060000C0F30740084A105C1030E8E7086800F0C3
:100610007F4028B10868000E034A105C1830DEE7FE
:1006200000F007F8DBE70000A80A000000210160E5
:1006300070472020704701238B4002681A430260F4
:100640007047426812680A6042684A6042681160F6
:1006500041608268521C82607047486002680A608C
:100660000268516001608268521C826070470146D6
:1006700088687047014600208A6802B14868704760
:1006800040600060002181607047D1E900325A600B
:10069000D1E900231A608268521E826070470146C9
:1006A00000208A683AB148684268116042684A602E
:1006B0008A68521E8A607047406000607047000080
:1006C00030B502461148006850434FF47A71B0FBD0
:1006D000F1F0401E4FF0E021486148170721002843
:1006E00004DB4B071C0E0A4B1C5406E04B071D0E87
:1006F000084B00F00F04241F1D5500BF00204FF0D1
:10070000E02188610720086130BD00002000002042
:1007100000E400E018ED00E070B5044600F01AF8BF
:10072000054621460648006800F072F90448006852
:1007300000F0F6F8284600F013F800F0A1F870BDBC
:100740000000002010B50248FFF79AFF10BD00001E
:10075000A401002000BFEFF31081084672B6704775
:1007600000BF80F3108800BF7047000070B50748D5
:10077000FFF72EFF044604EB4401054A02EB81001B
:10078000FFF778FF0546281F70BD00000C00002011
:10079000240000202DE9F04105460F4690461E46F4
:1007A000069C4FF08071201F04460160201F044604
:1007B00007601421201F044601601221201F0446F7
:1007C00001600321201F044601600221201F04460E
:1007D00001600121201F04460160201F0446C0F86B
:1007E00000801121201F044601601021201F0446B3
:1007F00001600921201F044601600821201F0446D2
:1008000001600721201F044601600621201F0446C5
:1008100001600521201F044601600421201F0446B9
:1008200001600A2028622C600020E860AE61E86167
:10083000281DFFF741FF05F11000FFF73DFF06EB14
:100840004601064A02EB8100291DFFF7FAFE3146F8
:100850000348FFF7F0FEBDE8F0810000240000200F
:100860000C000020002080F3098800BFFF2003490E
:100870000870C80601491E390860704722ED00E083
:1008800070B5FFF767FF05460B480078002803DDC9
:100890002846FFF765FF70BDFFF768FF044607486D
:1008A0000068844203D00648046000F057F82846E8
:1008B000FFF756FF00BFEEE7100000200000002009
:1008C0000400002010B50020084908700848FFF710
:1008D000ADFE002407E004EB4401064A02EB810070
:1008E000FFF7CEFE641C202CF5DB10BD10000020AD
:1008F0000C0000202400002010B50446A16901EB83
:100900004101054A02EB8100211DFFF79AFE0348D1
:10091000A169FFF790FE10BD240000200C0000200C
:1009200010B50446A16901EB41010A4A02EB8100BE
:10093000211DFFF7AAFEA16901EB4101054A02EB67
:100940008100FFF794FE18B90348A169FFF73AFE4A
:1009500010BD0000240000200C0000204FF080504B
:10096000014908607047000004ED00E070B5FFF732
:10097000F1FE0646234844680CE0A4F11005E8683F
:10098000401EE86028B9284600F052F82846FFF7D4
:10099000B3FF64681B488442EFD11B480068006ABB
:1009A000401E19490968086228BB17490968896906
:1009B00001EB4101154A02EB8100FFF758FED0B16F
:1009C00011490968896901EB4101104A02EB810074
:1009D000FFF765FE0C490968896901EB41010B4A83
:1009E00002EB810008490968091DFFF736FE0A205D
:1009F0000549096808623046FFF7B2FEFFF740FF7D
:100A000070BD0000A4010020000000202400002090
:100A100070B504460D46E56004F110010348FFF788
:100A20001CFEE06940F00200E06170BDA4010020FE
:100A300010B5044604F110010348FFF726FEE069F3
:100A400020F00200E06110BDA40100200A20FFF7A1
:100A500037FE00BF0020054908600120FFF75CFE5B
:100A6000012002490860FFF757FEF3E71400002059
:100A700000BF002004490860FFF74CFD0120024937
:100A80000860FFF747FDF4E71800002000BF0020D2
:100A900004490860FFF73EFD012002490860FFF7A6
:100AA00039FDF4E71C000020FF00010002000100F6
:100AB0000300010002000100040001000200010027
:100AC0000300010002000100050001000200010016
:100AD0000300010002000100040001000200010007
:100AE00003000100020001000600010002000100F5
:100AF00003000100020001000400010002000100E7
:100B000003000100020001000500010002000100D5
:100B100003000100020001000400010002000100C6
:100B200003000100020001000700010002000100B3
:100B300003000100020001000400010002000100A6
:100B40000300010002000100050001000200010095
:100B50000300010002000100040001000200010086
:100B60000300010002000100060001000200010074
:100B70000300010002000100040001000200010066
:100B80000300010002000100050001000200010055
:100B90000300010002000100040001000200010046
:100BA0000300010002000100C80B0000000000204B
:100BB00024000000FC030000EC0B000024000020D7
:100BC0001C460000180400000000000000000000A7
:100BD0000000000000000000000000000000000015
:0C0BE0000000000000000000001BB70037
:04000005000003C133
:00000001FF
