:020000040000FA
:10000000282400208D0400009504000097040000BF
:10001000990400009B0400009D0400000000000003
:100020000000000000000000000000009F0400002D
:10003000A1040000000000005D040000A504000011
:10004000A7040000A9040000AB040000AD040000F8
:10005000AF040000B1040000B3040000B5040000C8
:10006000B7040000B9040000000000000000000018
:100070000000000000000000000000000000000080
:100080000000000000000000000000000000000070
:100090000000000000000000000000000000000060
:1000A0000000000000000000000000000000000050
:1003C00000F002F800F03AF80AA090E8000C82442D
:1003D0008344AAF10107DA4501D100F02FF8AFF20A
:1003E000090EBAE80F0013F0010F18BFFB1A43F013
:1003F00001031847AC020000CC020000103A24BFF1
:1004000078C878C1FAD8520724BF30C830C144BF79
:1004100004680C60704700000023002400250026BB
:10042000103A28BF78C1FBD8520728BF30C148BF57
:100430000B6070471FB51FBD10B510BDDFF80CD0A5
:10044000FFF7F8FF00F068F800F03FF828240020DC
:1004500003B4FFF7F1FF03BC00F042F8EFF30980AB
:1004600020B120E9F00F07490968086005480649EE
:100470000A6802601068B0E8F00F80F309884EF057
:10048000040E704700000020040000200B48804745
:100490000B480047FEE7FEE7FEE7FEE7FEE7FEE764
:1004A000FEE7FEE7FEE7FEE7FEE7FEE7FEE7FEE724
:1004B000FEE7FEE7FEE7FEE7FEE70000ED040000D2
:1004C000C103000070477047704710B50446AFF392
:1004D00000802046BDE81040FFF7BABF704700001B
:1004E00001491820ABBEFEE726000200034804497C
:1004F00008600448044908607047000000000000DC
:1005000008ED00E040787D012000002000BF411E82
:10051000081EFCDC7047000010B50D4B4FF0113287
:100520000C490D4800F024F80C4B4FF022320C49D6
:100530000C4800F01DF808480B490860094848605D
:10054000084600680949086000F054F8002010BD12
:100550002410002055060000100000202420002058
:100560007D06000014000020080000200400002088
:1005700030B54FF080751C1F234625601C1F234695
:10058000216014251C1F2346256012251C1F2346AD
:10059000256003251C1F2346256002251C1F2346BA
:1005A000256001251C1F234625601C1F2346226051
:1005B00011251C1F2346256010251C1F234625607E
:1005C00009251C1F2346256008251C1F234625607E
:1005D00007251C1F2346256006251C1F2346256072
:1005E00005251C1F2346256004251C1F2346256066
:1005F000036030BD002080F3098800BFFF2003495D
:100600000870C80601491E390860704722ED00E0F5
:1006100010B50948006809490968884204D10648AC
:1006200040680749086003E003480068044908601F
:1006300000F008F810BD00000800002000000020B5
:10064000040000204FF0805001490860704700000E
:1006500004ED00E000BF00BF00BF002006490860B5
:100660006420FFF753FF0120034908606420FFF76F
:100670004DFFFFF7CDFFF0E71800002000BF00207E
:10068000064908606420FFF741FF01200349086024
:100690006420FFF73BFFFFF7BBFFF0E71C000020E3
:1006A000C00600000000002024000000FC03000041
:1006B000E4060000240000200424000018040000C8
:1006C000000000000000000000000000000000002A
:1006D000000000000000000000000000000000001A
:0406E00040787D01E0
:04000005000003C133
:00000001FF
