:020000040000FA
:10000000285700208D04000095040000970400008C
:10001000990400009B0400009D0400000000000003
:100020000000000000000000000000009F0400002D
:10003000A1040000000000005D040000ED040000C9
:10004000A7040000A9040000AB040000AD040000F8
:10005000AF040000B1040000B3040000B5040000C8
:10006000B7040000B9040000000000000000000018
:100070000000000000000000000000000000000080
:100080000000000000000000000000000000000070
:100090000000000000000000000000000000000060
:1000A0000000000000000000000000000000000050
:1003C00000F002F800F03AF80AA090E8000C82442D
:1003D0008344AAF10107DA4501D100F02FF8AFF20A
:1003E000090EBAE80F0013F0010F18BFFB1A43F013
:1003F00001031847100A0000300A0000103A24BF19
:1004000078C878C1FAD8520724BF30C830C144BF79
:1004100004680C60704700000023002400250026BB
:10042000103A28BF78C1FBD8520728BF30C148BF57
:100430000B6070471FB51FBD10B510BDDFF80CD0A5
:10044000FFF7F8FF00F068F800F03FF828570020A9
:1004500003B4FFF7F1FF03BC00F042F8EFF30980AB
:1004600020B120E9F00F07490968086005480649EE
:100470000A6802601068B0E8F00F80F309884EF057
:10048000040E704700000020040000200B48804745
:100490000B480047FEE7FEE7FEE7FEE7FEE7FEE764
:1004A000FEE7FEE7FEE7FEE7FEE7FEE7FEE7FEE724
:1004B000FEE7FEE7FEE7FEE7FEE70000F5040000CA
:1004C000C103000070477047704710B50446AFF392
:1004D00000802046BDE81040FFF7BABF704700001B
:1004E00001491820ABBEFEE72600020010B500F05F
:1004F00033FB10BD03480449086004480449086000
:10050000704700000000000008ED00E0001BB7008D
:100510002400002000BFFEE708B500F0C9FA00F093
:100520000FFA00F0D9F809481F230022084900906B
:10053000084800F02DFA07480749086000F014FA4F
:100540000649086000F084FA002008BDF41100207C
:1005500015050000B4010020080000200400002060
:1005600001238B4002689A430260704700B5014640
:10057000087818B10878134A105C00BD088800F4A8
:100580007F4030B10888C0F307200E4A105C083065
:10059000F3E7086800F47F0030B10868C0F3074053
:1005A000084A105C1030E8E7086800F07F4028B186
:1005B0000868000E034A105C1830DEE700F007F808
:1005C000DBE70000040D00000021016070472020DF
:1005D000704701238B4002681A430260704770B570
:1005E00004460D4600202070201D00F0D2F870BD9A
:1005F0002DE9F04104460D46164600F0A9F90746DC
:10060000616B081D211D00F0C9F800206063A5631F
:10061000E663E06920F47F00E061384600F09EF96F
:10062000BDE8F0812DE9F04705460C4616461F4609
:10063000DDF8208000F08CF98146E0693843E06104
:100640006563A6630020E063204600F05FFA211D89
:10065000281D00F08BF8B8F1000F03D0414620466A
:1006600000F0D2FA484600F079F9BDE8F08770B59D
:100670000446002500F06CF90646201D00F080F8C5
:100680000546304600F06AF9284670BD2DE9F0476E
:1006900005460E46174600F05BF98146281D00F01E
:1006A00087F8B0F1000811D0A8F1040400206063BD
:1006B000A663E763E06920F47F00E061E06810B1C1
:1006C000204600F0B1FA204600F00CFA484600F04F
:1006D00045F92046BDE8F08708B5124800234FF0E1
:1006E000113211490090114800F052F910480123CD
:1006F0004FF022320F4900900F4800F049F90F489F
:1007000001234FF033320E4900900E4800F040F9BB
:100710000D4801234FF044320C4900900C4800F082
:1007200037F908BDF4220020450C0000F411002028
:10073000F4320020810C000034120020F44200202A
:10074000B10C000074120020F4520020E50C0000EF
:10075000B4120020426812680A6042684A60426827
:10076000116041608268521C826070474860026874
:100770000A600268516001608268521C82607047A2
:10078000014688687047014600208A6802B14868BF
:10079000704740600060002181607047D1E90032FD
:1007A0005A60D1E900231A608268521E8260704745
:1007B000014600208A683AB1486842681160426880
:1007C0004A608A68521E8A607047406000607047C5
:1007D00070B504460E46154601212046FFF7FFFE80
:1007E00065610DB9266105E0AE4201D9284600E0F9
:1007F0003046206170BD70B5044600F0A9F805468A
:10080000206938B12069401E2061284600F0A6F812
:10081000002070BD284600F0A1F80220F9E7000092
:1008200070B5044600F094F806462046FFF71FFF17
:1008300070B1002211462046FFF728FF05460C49FB
:10084000A86909688969884201D200F00FF90AE0B5
:100850002069401C2061606928B1D4E90401884204
:1008600001D960692061304600F078F870BD000061
:1008700000000020F8B504460D4600F069F8064671
:10088000206938B12069401E2061304600F066F8CA
:100890000020F8BD0123002207480095016820468A
:1008A000FFF7C0FE304600F059F800F0DFF80248CC
:1008B0000068C06BEDE700000000002030B5024684
:1008C0001148006850434FF47A71B0FBF1F0401EBC
:1008D0004FF0E021486148170721002804DB4B074F
:1008E0001C0E0A4B1C5406E04B071D0E084B00F073
:1008F0000F04241F1D5500BF00204FF0E021886128
:100900000720086130BD00002400002000E400E062
:1009100018ED00E070B5044600F01AF805462146CF
:100920000648006800F070F90448006800F0EEF82E
:10093000284600F013F800F099F870BD0000002080
:1009400010B50248FFF725FF10BD0000A8010020E8
:1009500000BFEFF31081084672B6704700BF80F306
:10096000108800BF7047000070B50748FFF7FEFD14
:10097000044604EB4401054A02EB8100FFF703FF44
:100980000546281F70BD00000C0000202800002034
:100990002DE9F04105460E4617469846069C4FF055
:1009A0008071201F04460160201F04460660142148
:1009B000201F044601601221201F0446016003210C
:1009C000201F044601600221201F0446016001210E
:1009D000201F04460160201F044607601121201FCC
:1009E000044601601021201F044601600921201FD8
:1009F000044601600821201F044601600721201FD2
:100A0000044601600621201F044601600521201FC5
:100A1000044601600421201F044601600A20286268
:100A20002C600020E860C5F81880E8616862A86260
:100A3000E86285F83000281DFFF7C7FE05F11000B9
:100A4000FFF7C3FE284600F04DF8BDE8F081000036
:100A5000002080F3098800BFFF2003490870C80602
:100A600001491E390860704722ED00E070B5FFF7BC
:100A70006FFF05460B480078002803DD2846FFF786
:100A80006DFF70BDFFF770FF0446074800688442A1
:100A900003D00648046000F057F82846FFF75EFFD1
:100AA00000BFEEE71000002000000020040000203E
:100AB00010B50020084908700848FFF785FD00249C
:100AC00007E004EB4401064A02EB8100FFF761FEF8
:100AD000641C202CF5DB10BD100000200C00002051
:100AE0002800002010B50446A16901EB4101054A28
:100AF00002EB8100211DFFF72DFE0348A169FFF7DE
:100B000068FD10BD280000200C00002010B5044630
:100B1000A16901EB41010A4A02EB8100211DFFF7A7
:100B20003DFEA16901EB4101054A02EB8100FFF79F
:100B300027FE18B90348A169FFF712FD10BD000098
:100B4000280000200C0000204FF080500149086070
:100B50007047000004ED00E070B5FFF7F9FE0646AF
:100B60002648456813E0A5F11004E068401EE060E7
:100B700060B9606B20B1012200212046FFF738FDEB
:100B8000204600F051F82046FFF7ACFF6D681B4887
:100B90008542E8D11A480068006A401E1849096871
:100BA000086228BB16490968896901EB4101154AA9
:100BB00002EB8100FFF7E4FDD0B1114909688969B2
:100BC00001EB41010F4A02EB8100FFF7F1FD0C49F7
:100BD0000968896901EB41010A4A02EB8100084971
:100BE0000968091DFFF7C2FD0A2005490968086266
:100BF0003046FFF7B3FEFFF739FF70BDA8010020B4
:100C0000000000202800002070B504460D46E56075
:100C100004F110010348FFF7A9FDE06940F004006A
:100C2000E06170BDA801002010B5044604F1100178
:100C30000348FFF7B3FDE06920F00400E06110BD58
:100C4000A80100200A20FFF739FE0A2200210A48E5
:100C5000FFF7BEFD00BF00210748FFF70BFE002095
:100C6000064908600120FFF755FE0120034908608E
:100C7000FFF750FEEFE70000F452002014000020C0
:100C800000BF0020084908600120FFF743FE012053
:100C900005490860FFF73EFE0448FFF7C1FD034821
:100CA000FFF7A9FD0446ECE718000020F4520020ED
:100CB000002211460948FFF78BFD00BF0A210748B3
:100CC000FFF7D8FD0020064908600120FFF722FE4B
:100CD000012003490860FFF71DFEEFE70C530020D9
:100CE0001C00002000BF0020054908600120FFF71C
:100CF00011FE012002490860FFF70CFEF3E7000037
:100D000020000020FF00010002000100030001009C
:100D100002000100040001000200010003000100C4
:100D200002000100050001000200010003000100B3
:100D300002000100040001000200010003000100A4
:100D40000200010006000100020001000300010092
:100D50000200010004000100020001000300010084
:100D60000200010005000100020001000300010073
:100D70000200010004000100020001000300010064
:100D80000200010007000100020001000300010051
:100D90000200010004000100020001000300010044
:100DA0000200010005000100020001000300010033
:100DB0000200010004000100020001000300010024
:100DC0000200010006000100020001000300010012
:100DD0000200010004000100020001000300010004
:100DE00002000100050001000200010003000100F3
:100DF00002000100040001000200010003000100E4
:100E000002000100240E0000000000202800000065
:100E1000FC0300004C0E00002800002000570000DA
:100E200018040000000000000000000000000000A6
:100E300000000000000000000000000000000000B2
:0C0E40000000000000000000001BB700D4
:04000005000003C133
:00000001FF
