:020000040000FA
:10000000403400208D040000950400009704000097
:10001000990400009B0400009D0400000000000003
:100020000000000000000000000000009F0400002D
:10003000A1040000000000005D040000ED040000C9
:10004000A7040000A9040000AB040000AD040000F8
:10005000AF040000B1040000B3040000B5040000C8
:10006000B7040000B9040000000000000000000018
:100070000000000000000000000000000000000080
:100080000000000000000000000000000000000070
:100090000000000000000000000000000000000060
:1000A0000000000000000000000000000000000050
:1003C00000F002F800F03AF80AA090E8000C82442D
:1003D0008344AAF10107DA4501D100F02FF8AFF20A
:1003E000090EBAE80F0013F0010F18BFFB1A43F013
:1003F000010318472806000048060000103A24BFF1
:1004000078C878C1FAD8520724BF30C830C144BF79
:1004100004680C60704700000023002400250026BB
:10042000103A28BF78C1FBD8520728BF30C148BF57
:100430000B6070471FB51FBD10B510BDDFF80CD0A5
:10044000FFF7F8FF00F068F800F03FF840340020B4
:1004500003B4FFF7F1FF03BC00F042F8EFF30980AB
:1004600020B120E9F00F07490968086005480649EE
:100470000A6802601068B0E8F00F80F309884EF057
:10048000040E704700000020040000200B48804745
:100490000B480047FEE7FEE7FEE7FEE7FEE7FEE764
:1004A000FEE7FEE7FEE7FEE7FEE7FEE7FEE7FEE724
:1004B000FEE7FEE7FEE7FEE7FEE70000F5040000CA
:1004C000C103000070477047704710B50446AFF392
:1004D00000802046BDE81040FFF7BABF704700001B
:1004E00001491820ABBEFEE72600020010B500F05F
:1004F000ADF910BD03480449086004480449086088
:10050000704700000000000008ED00E0001BB7008D
:100510003C00002000BFFEE710B500F089F9124B47
:100520004FF011321149124800F0BDF8114B4FF055
:1005300022321149114800F0B6F80D481049086000
:100540000E4848600F4B00220F49104800F0ABF8EE
:100550000E480F4908600A4800680E49086000F01C
:10056000E7F8002010BD0000401000208D080000BA
:100570002400002040200020FD0800002C00002066
:100580000C00002040300020150500003400002041
:10059000080000200400002001238B4002689A43D9
:1005A0000260704700B50146087818B10878134A10
:1005B000105C00BD088800F47F4030B10888C0F3AB
:1005C00007200E4A105C0830F3E7086800F47F004B
:1005D00030B10868C0F30740084A105C1030E8E703
:1005E000086800F07F4028B10868000E034A105CDC
:1005F0001830DEE700F007F8DBE700001C09000018
:100600000021016070472020704701238B40026861
:100610001A4302607047000030B502461148006876
:1006200050434FF47A71B0FBF1F0401E4FF0E021DF
:10063000486148170721002804DB4B071C0E0A4BB2
:100640001C5406E04B071D0E084B00F00F04241F3E
:100650001D5500BF00204FF0E02188610720086190
:1006600030BD00003C00002000E400E018ED00E098
:1006700070B5044600F00CF8054604480068446074
:10068000284600F00BF800F061F870BD0000002073
:1006900000BFEFF31081084672B6704700BF80F3C9
:1006A000108800BF704730B54FF080751C1F23467F
:1006B00025601C1F2346216014251C1F234625602E
:1006C00012251C1F2346256003251C1F2346256079
:1006D00002251C1F2346256001251C1F234625607B
:1006E0001C1F2346226011251C1F23462560102550
:1006F0001C1F2346256009251C1F2346256008254D
:100700001C1F2346256007251C1F23462560062540
:100710001C1F2346256005251C1F23462560042534
:100720001C1F2346256003600024446030BD000088
:10073000002080F3098800BFFF2003490870C80625
:1007400001491E390860704722ED00E010B5FFF73F
:100750009FFF044631480078002803DD2046FFF75C
:100760009DFF10BD2E4800682E490968884215D1AA
:100770002D480068406820B92B4800682B49086064
:1007800044E029484068406820B927484068274924
:1007900008603BE02046FFF781FFE2E7224800685F
:1007A0001F490968884215D11F484068406820B930
:1007B0001D4840681D49086028E0194800684068E5
:1007C00020B118480068194908601FE02046FFF76B
:1007D00065FFC6E71448406811490968884215D189
:1007E00011484068406820B90F4800680F49086008
:1007F0000CE00B480068406820B10A4800680B49CB
:10080000086003E02046FFF749FFAAE700F016F86A
:100810002046FFF743FF00BFA3E7000014000020BD
:1008200000000020080000200C0000200400002030
:100830000020014908707047140000204FF08050DC
:10084000014908607047000004ED00E010B5FFF7B3
:100850001FFF044600200EE00B4951F820104968A4
:1008600041B1094951F820104968491E064A52F819
:1008700020205160401C0228EEDB2046FFF70EFFCF
:10088000FFF764FF10BD00000C00002008B56846AB
:10089000FFF7B6FEFFF7B7FE441E09E021466846A3
:1008A000FFF7B3FE6846FFF77DFE12490860641E3D
:1008B000002CF3DA002409E021466846FFF76CFEBD
:1008C0006846FFF76FFE0B490860641CFFF79BFE4C
:1008D000A042F1D80A20FFF79FFE00BF0020064982
:1008E00008600120FFF7C4FE012003490860FFF7FC
:1008F000BFFEF3E7180000201C00002000BF00200E
:10090000054908600120FFF7B3FE01200249086095
:10091000FFF7AEFEF3E7000020000020FF0001001B
:1009200002000100030001000200010004000100B8
:1009300002000100030001000200010005000100A7
:100940000200010003000100020001000400010098
:100950000200010003000100020001000600010086
:100960000200010003000100020001000400010078
:100970000200010003000100020001000500010067
:100980000200010003000100020001000400010058
:100990000200010003000100020001000700010045
:1009A0000200010003000100020001000400010038
:1009B0000200010003000100020001000500010027
:1009C0000200010003000100020001000400010018
:1009D0000200010003000100020001000600010006
:1009E00002000100030001000200010004000100F8
:1009F00002000100030001000200010005000100E7
:100A000002000100030001000200010004000100D7
:100A10000200010003000100020001003C0A000086
:100A20000000002040000000FC0300007C0A0000E1
:100A30004000002000340000180400000000000006
:100A400000000000000000000000000000000000A6
:100A50000000000000000000000000000000000096
:100A60000000000000000000000000000000000086
:0C0A70000000000000000000001BB700A8
:04000005000003C133
:00000001FF
