:020000040000FA
:10000000286800208D04000095040000970400007B
:10001000990400009B0400009D0400000000000003
:100020000000000000000000000000009F0400002D
:10003000A1040000000000005D040000ED040000C9
:10004000A7040000A9040000AB040000AD040000F8
:10005000AF040000B1040000B3040000B5040000C8
:10006000B7040000B9040000000000000000000018
:100070000000000000000000000000000000000080
:100080000000000000000000000000000000000070
:100090000000000000000000000000000000000060
:1000A0000000000000000000000000000000000050
:1003C00000F002F800F03AF80AA090E8000C82442D
:1003D0008344AAF10107DA4501D100F02FF8AFF20A
:1003E000090EBAE80F0013F0010F18BFFB1A43F013
:1003F00001031847740C0000940C0000103A24BF4D
:1004000078C878C1FAD8520724BF30C830C144BF79
:1004100004680C60704700000023002400250026BB
:10042000103A28BF78C1FBD8520728BF30C148BF57
:100430000B6070471FB51FBD10B510BDDFF80CD0A5
:10044000FFF7F8FF00F068F800F03FF82868002098
:1004500003B4FFF7F1FF03BC00F042F8EFF30980AB
:1004600020B120E9F00F07490968086005480649EE
:100470000A6802601068B0E8F00F80F309884EF057
:10048000040E704700000020040000200B48804745
:100490000B480047FEE7FEE7FEE7FEE7FEE7FEE764
:1004A000FEE7FEE7FEE7FEE7FEE7FEE7FEE7FEE724
:1004B000FEE7FEE7FEE7FEE7FEE70000F5040000CA
:1004C000C103000070477047704710B50446AFF392
:1004D00000802046BDE81040FFF7BABF704700001B
:1004E00001491820ABBEFEE72600020010B500F05F
:1004F00023FB10BD03480449086004480449086010
:10050000704700000000000008ED00E0001BB7008D
:100510003000002000BFFEE708B500F0B9FA00F097
:10052000FFF900F0E1FB00F0DBF809481F2300228F
:1005300008490090084800F01BFA0748074908607E
:1005400000F002FA0649086000F072FA002008BDC7
:100550000812002015050000C0010020080000203E
:100560000400002001238B4002689A430260704718
:1005700000B50146087818B10878134A105C00BD30
:10058000088800F47F4030B10888C0F307200E4A85
:10059000105C0830F3E7086800F47F0030B10868A9
:1005A000C0F30740084A105C1030E8E7086800F024
:1005B0007F4028B10868000E034A105C1830DEE75F
:1005C00000F007F8DBE70000680F00000021016081
:1005D00070472020704701238B4002681A43026055
:1005E000704770B504460D4600202070201D00F0B5
:1005F000D4F870BD2DE9F04104460D46164600F0D2
:1006000097F90746616B081D211D00F0CBF800200B
:100610006063A563E663E06920F47F00E06138462B
:1006200000F08CF9BDE8F0812DE9F04705460C4655
:1006300016461F46DDF8208000F07AF98146E06911
:1006400040EA0740E0616563A6630020E06320465E
:1006500000F04CFA211D281D00F08CF8B8F1000FB5
:1006600003D04146204600F0C1FA484600F066F942
:10067000BDE8F08770B50446002500F059F906463C
:10068000201D00F081F80546304600F057F9284655
:1006900070BD2DE9F04705460E461746002400F0D0
:1006A00047F98146281D00F087F8B0F1000811D005
:1006B000A8F1040400206063A663E763E06920F406
:1006C0007F00E061E06810B1204600F09FFA20460C
:1006D00000F0F8F9484600F031F92046BDE8F0870F
:1006E00008B5124800234FF011321149009011480B
:1006F00000F03EF9104801234FF022320F490090DC
:100700000F4800F035F90F4801234FF033320E49FE
:1007100000900E4800F02CF90D4801234FF04432B0
:100720000C4900900C4800F023F908BD2823002054
:10073000510E00000812002028330020FD0E00009A
:1007400050120020284300201D0F000098120020A6
:10075000285300203D0F0000E0120020426812687C
:100760000A6042684A604268116041608268521CB7
:1007700082607047486002680A60026851600160E8
:100780008268521C82607047014688687047014643
:1007900000208A6802B1486870474060006000210C
:1007A00081607047D1E900325A60D1E900231A60B4
:1007B0008268521E82607047014600208A683AB102
:1007C00048684268116042684A608A68521E8A60BE
:1007D000704740600060704770B504460E4615468D
:1007E00001212046FFF7FDFE65610DB9266105E098
:1007F000AE4201D9284600E03046206170BD0000BD
:1008000070B5044600F094F806462046FFF732FF24
:1008100070B1002211462046FFF73BFF05460C4908
:10082000A86909688969884201D200F00FF90AE0D5
:100830002069401C2061606928B1D4E90401884224
:1008400001D960692061304600F078F870BD000081
:1008500000000020F8B504460D4600F069F8064691
:10086000206938B12069401E2061304600F066F8EA
:100870000020F8BD012300220748009501682046AA
:10088000FFF7D2FE304600F059F800F0DFF80248DA
:100890000068C06BEDE700000000002030B50246A4
:1008A0001148006850434FF47A71B0FBF1F0401EDC
:1008B0004FF0E021486148170721002804DB4B076F
:1008C0001C0E0A4B1C5406E04B071D0E084B00F093
:1008D0000F04241F1D5500BF00204FF0E021886148
:1008E0000720086130BD00003000002000E400E077
:1008F00018ED00E070B5044600F01AF805462146F0
:100900000648006800F072F90448006800F0EEF84C
:10091000284600F013F800F099F870BD00000020A0
:1009200010B50248FFF739FF10BD0000B4010020E8
:1009300000BFEFF31081084672B6704700BF80F326
:10094000108800BF7047000070B50748FFF710FE21
:10095000044604EB4401054A02EB8100FFF717FF50
:100960000546281F70BD00000C0000203400002048
:100970002DE9F04105460E4617469846069C4FF075
:100980008071201F04460160201F04460660142168
:10099000201F044601601221201F0446016003212C
:1009A000201F044601600221201F0446016001212E
:1009B000201F04460160201F044607601121201FEC
:1009C000044601601021201F044601600921201FF8
:1009D000044601600821201F044601600721201FF2
:1009E000044601600621201F044601600521201FE6
:1009F000044601600421201F044601600A20286289
:100A00002C600020E860C5F81880E8616862A86280
:100A1000E86285F83000281DFFF7DBFE05F11000C5
:100A2000FFF7D7FE284600F04DF8BDE8F081000042
:100A3000002080F3098800BFFF2003490870C80622
:100A400001491E390860704722ED00E070B5FFF7DC
:100A50006FFF05460B480078002803DD2846FFF7A6
:100A60006DFF70BDFFF770FF0446074800688442C1
:100A700003D00648046000F057F82846FFF75EFFF1
:100A800000BFEEE71000002000000020040000205E
:100A900010B50020084908700848FFF797FD0024AA
:100AA00007E004EB4401064A02EB8100FFF775FE04
:100AB000641C202CF5DB10BD100000200C00002071
:100AC0003400002010B50446A16901EB4101054A3C
:100AD00002EB8100211DFFF741FE0348A169FFF7EA
:100AE0007AFD10BD340000200C00002010B5044633
:100AF000A16901EB41010A4A02EB8100211DFFF7C8
:100B000051FEA16901EB4101054A02EB8100FFF7AB
:100B10003BFE18B90348A169FFF724FD10BD000092
:100B2000340000200C0000204FF080500149086084
:100B30007047000004ED00E070B5FFF7F9FE0646CF
:100B40002748456813E0A5F11004E068401EE06006
:100B500060B9606B20B1012200212046FFF74AFDF9
:100B6000204600F053F82046FFF7ACFF6D681C48A4
:100B70008542E8D11B480068006A401E194909688F
:100B8000086228BB17490968896901EB4101164AC7
:100B900002EB8100FFF7F8FDD0B1124909688969BD
:100BA00001EB4101104A02EB8100FFF705FE0D4900
:100BB0000968896901EB41010B4A02EB810009498F
:100BC0000968091DFFF7D6FD0A2006490968086271
:100BD0003046FFF7B3FE00F0AFF8FFF737FF70BD08
:100BE000B4010020000000203400002070B504464D
:100BF0000D46E56004F110010348FFF7BBFDE06915
:100C000040F00400E06170BDB401002010B504465E
:100C100004F110010348FFF7C5FDE06920F004006E
:100C2000E06110BDB401002070B505466E681CE09F
:100C30003446206918B12069401E2061A0B9022005
:100C400084F82000D4E905108847012084F82000AA
:100C5000E06810B1E068206106E021462846FFF711
:100C6000A1FD032084F820007668AE42E0D170BD7B
:100C700010B50446204600F0BDF8042084F820009A
:100C800010BD70B504460D46FFF752FE0646A0683B
:100C90002860E06868606069A860A069E860E06951
:100CA000286194F8200028753046FFF747FE70BD94
:100CB0002DE9F04704460D4616461F46DDE9088932
:100CC0002046FFF786FDA560E6606761C4F81880DE
:100CD000C4F81C900DB9266101E0A06820610020D5
:100CE00084F82000BDE8F08708B50C48FFF755FDF3
:100CF0000B48FFF752FD012211460A48FFF76CFD31
:100D0000002211460848FFF767FD0848012300222A
:100D1000074900900748FFF72BFE08BD94530020B9
:100D2000A0530020AC530020C453002024640020B2
:100D30005D0D0000DC53002010B5FFF7F9FD0446FF
:100D40000448FFF771FF2046FFF7F8FD0248FFF760
:100D500057FD10BD94530020C453002000BF002154
:100D60000648FFF777FD00210548FFF773FD0548AA
:100D7000FFF75AFF0248FFF743FDF0E7C453002096
:100D8000AC530020A053002070B5044694F8200016
:100D900010B1032825D100E000BFA06808B1A06809
:100DA00000E0E0682061012084F82000207F00F04E
:100DB000010050B1FFF7BCFD054621460A48FFF788
:100DC000CDFC2846FFF7BAFD0AE000210748FFF7EF
:100DD00041FD21460648FFF7CDFC0448FFF710FD12
:100DE00000E000BF00BF70BD94530020AC53002052
:100DF000A053002070B5044694F82000012802D0CA
:100E000002281CD100E000BF207F00F0010050B19B
:100E1000FFF78EFD054621460A48FFF7C3FC28462A
:100E2000FFF78CFD0AE000210748FFF713FD21467C
:100E30000648FFF79FFC0448FFF7E2FC00E000BF14
:100E400000BF70BD94530020AC530020A05300207D
:100E500088B000240A20FFF721FD01201F49204B04
:100E60000A22CDE9001064211E48FFF721FF1D482A
:100E7000FFF78AFF01201C49194B1422CDE900100D
:100E8000C8211A48FFF714FF1848FFF77DFF00201C
:100E90001749134B0246CDE900104FF496711548DF
:100EA000FFF706FF1348FFF76FFF00BF002012494E
:100EB00008600120FFF71EFD01200F490860FFF7C1
:100EC00019FD34B9C820FFF715FD0648FFF7D0FE1D
:100ED000012402A90548FFF7D4FEE7E7140000202B
:100EE0005D0F000028530020180000204C53002004
:100EF0001C000020705300202000002000BF0020B4
:100F0000054908600120FFF7F5FC0120024908604F
:100F1000FFF7F0FCF3E700002400002000BF0020F2
:100F2000054908600120FFF7E5FC0120024908603F
:100F3000FFF7E0FCF3E700002800002000BF0020DE
:100F4000054908600120FFF7D5FC0120024908602F
:100F5000FFF7D0FCF3E700002C00002001460A68F0
:100F600082F001020A607047FF00010002000100E8
:100F70000300010002000100040001000200010062
:100F80000300010002000100050001000200010051
:100F90000300010002000100040001000200010042
:100FA0000300010002000100060001000200010030
:100FB0000300010002000100040001000200010022
:100FC0000300010002000100050001000200010011
:100FD0000300010002000100040001000200010002
:100FE00003000100020001000700010002000100EF
:100FF00003000100020001000400010002000100E2
:1010000003000100020001000500010002000100D0
:1010100003000100020001000400010002000100C1
:1010200003000100020001000600010002000100AF
:1010300003000100020001000400010002000100A1
:101040000300010002000100050001000200010090
:101050000300010002000100040001000200010081
:1010600003000100020001008810000000000020C1
:1010700034000000FC030000BC100000340000201D
:10108000F4670000180400000000000000000000E9
:101090000000000000000000000000000000000050
:1010A0000000000000000000000000000000000040
:0C10B0000000000000000000001BB70062
:04000005000003C133
:00000001FF
