:020000040000FA
:10000000805800208D040000950400009704000033
:10001000990400009B0400009D0400000000000003
:100020000000000000000000000000009F0400002D
:10003000A1040000000000005D040000ED040000C9
:10004000A7040000A9040000AB040000AD040000F8
:10005000AF040000B1040000B3040000B5040000C8
:10006000B7040000B9040000000000000000000018
:100070000000000000000000000000000000000080
:100080000000000000000000000000000000000070
:100090000000000000000000000000000000000060
:1000A0000000000000000000000000000000000050
:1003C00000F002F800F03AF80AA090E8000C82442D
:1003D0008344AAF10107DA4501D100F02FF8AFF20A
:1003E000090EBAE80F0013F0010F18BFFB1A43F013
:1003F00001031847180B0000380B0000103A24BF07
:1004000078C878C1FAD8520724BF30C830C144BF79
:1004100004680C60704700000023002400250026BB
:10042000103A28BF78C1FBD8520728BF30C148BF57
:100430000B6070471FB51FBD10B510BDDFF80CD0A5
:10044000FFF7F8FF00F068F800F03FF88058002050
:1004500003B4FFF7F1FF03BC00F042F8EFF30980AB
:1004600020B120E9F00F07490968086005480649EE
:100470000A6802601068B0E8F00F80F309884EF057
:10048000040E704700000020040000200B48804745
:100490000B480047FEE7FEE7FEE7FEE7FEE7FEE764
:1004A000FEE7FEE7FEE7FEE7FEE7FEE7FEE7FEE724
:1004B000FEE7FEE7FEE7FEE7FEE70000F5040000CA
:1004C000C103000070477047704710B50446AFF392
:1004D00000802046BDE81040FFF7BABF704700001B
:1004E00001491820ABBEFEE72600020010B500F05F
:1004F000A1FB10BD03480449086004480449086092
:10050000704700000000000008ED00E0001BB7008D
:100510002400002000BFFEE708B500F037FB00F024
:100520007DFA00F007F909481F23002208490090CE
:10053000084800F09BFA07480749086000F082FA73
:100540000649086000F0F2FA002008BDF41100200E
:1005500015050000B4010020080000200400002060
:1005600001238B4002689A430260704700B5014640
:10057000087818B10878134A105C00BD088800F4A8
:100580007F4030B10888C0F307200E4A105C083065
:10059000F3E7086800F47F0030B10868C0F3074053
:1005A000084A105C1030E8E7086800F07F4028B186
:1005B0000868000E034A105C1830DEE700F007F808
:1005C000DBE700000C0E00000021016070472020D6
:1005D000704701238B4002681A430260704770B570
:1005E00004460D4600202070201D00F000F970BD6B
:1005F0002DE9F04705460F4690464FF0000900F000
:1006000015FA8246281D00F0E9F8814612E0341FF1
:1006100000206063A763C4F83C80E06920F47F0099
:10062000E061E06810B1204600F06CFB204600F06D
:10063000C7FA00BF281D00F0E9F8061EE7D15046B2
:1006400000F0FAF94846BDE8F0872DE9F04104468C
:100650000D46164600F0EAF90746616B081D211D9C
:1006600000F0CAF800206063A563E663E06920F447
:100670007F00E061384600F0DFF9BDE8F0812DE948
:10068000F04705460C4616461F46DDF8208000F070
:10069000CDF98146E0693843E0616563A6630020D7
:1006A000E063204600F0A0FA211D281D00F08CF820
:1006B000B8F1000F03D04146204600F013FB484636
:1006C00000F0BAF9BDE8F08770B50446002500F0E7
:1006D000ADF90646201D00F081F80546304600F0D1
:1006E000ABF9284670BD2DE9F04705460E46174682
:1006F00000F09CF98146281D00F088F8B0F1000850
:1007000011D0A8F1040400206063A663E763E069E8
:1007100020F47F00E061E06810B1204600F0F2FABA
:10072000204600F04DFA484600F086F92046BDE824
:10073000F087000008B5124800234FF0113211492C
:100740000090114800F092F9104801234FF0223236
:100750000F4900900F4800F089F90F4801234FF02E
:1007600033320E4900900E4800F080F90D48012305
:100770004FF044320C4900900C4800F077F908BD66
:10078000F4220020210D0000F4110020F43200209A
:10079000750D000034120020F4420020A50D000069
:1007A00074120020F4520020E90D0000B412002061
:1007B000426812680A6042684A604268116041609B
:1007C0008268521C82607047486002680A60026852
:1007D000516001608268521C8260704701468868DF
:1007E0007047014600208A6802B14868704740603F
:1007F0000060002181607047D1E900325A60D1E980
:1008000000231A608268521E8260704701460020F1
:100810008A683AB148684268116042684A608A68EA
:10082000521E8A60704770B5054600F0FFF8064614
:10083000032200212846FFF7DBFE0446304600F085
:10084000FBF80CB100F080F9204670BD70B504468D
:1008500000F0ECF805462046FFF736FF18B90020F7
:100860006061A0612061284600F0E6F870BD70B5B7
:1008700004460E46154602212046FFF7B0FE2662CA
:10088000E56100206061A061206170BD2DE9F0414B
:1008900004460D46164600F0C9F880462046FFF78C
:1008A00013FF70B1002229462046FFF71CFF0746C0
:1008B0001B49B86909688969884201D200F044F986
:1008C00029E0E1692069884205D3404600F0B4F888
:1008D0000420BDE8F08106F0010068B1606918B934
:1008E000E069401E606102E06069401E606161690C
:1008F000206A40F821500BE0A169481CA061206AE1
:1009000040F82150D4E90601884201D30020A061BB
:100910002069401C2061404600F08EF80020D8E796
:1009200000000020F8B504460D46164600F07EF89B
:1009300007462069A0B12069401E20616169481CFA
:100940006061206A50F821002860E169606988428E
:1009500001D300206061384600F06EF80020F8BD39
:10096000022300220948009601682046FFF787FE0F
:10097000384600F061F800F0E7F804480068806B42
:10098000286002480068C06BE9E700000000002012
:10099000406000607047000030B5024611480068B2
:1009A00050434FF47A71B0FBF1F0401E4FF0E0215C
:1009B000486148170721002804DB4B071C0E0A4B2F
:1009C0001C5406E04B071D0E084B00F00F04241FBB
:1009D0001D5500BF00204FF0E0218861072008610D
:1009E00030BD00002400002000E400E018ED00E02D
:1009F00070B5044600F01AF805462146064800681E
:100A000000F070F90448006800F0EEF8284600F0A5
:100A100013F800F099F870BD0000002010B50248EE
:100A2000FFF7E5FE10BD0000A801002000BFEFF3B6
:100A30001081084672B6704700BF80F3108800BF6F
:100A40007047000070B50748FFF790FD044604EBBF
:100A50004401054A02EB8100FFF7C3FE0546281F4B
:100A600070BD00000C000020280000202DE9F0419E
:100A700005460E4617469846069C4FF08071201F8B
:100A800004460160201F044606601421201F04460E
:100A900001601221201F044601600321201F04462B
:100AA00001600221201F044601600121201F04462D
:100AB0000160201F044607601121201F04460160C9
:100AC0001021201F044601600921201F04460160F7
:100AD0000821201F044601600721201F04460160F1
:100AE0000621201F044601600521201F04460160E5
:100AF0000421201F044601600A2028622C60002087
:100B0000E860C5F81880E8616862A862E86285F864
:100B10003000281DFFF73CFF05F11000FFF738FFFC
:100B2000284600F04DF8BDE8F0810000002080F379
:100B3000098800BFFF2003490870C80601491E3913
:100B40000860704722ED00E070B5FFF76FFF0546C3
:100B50000B480078002803DD2846FFF76DFF70BDC5
:100B6000FFF770FF044607480068844203D0064838
:100B7000046000F057F82846FFF75EFF00BFEEE77D
:100B800010000020000000200400002010B500200C
:100B9000084908700848FFF717FD002407E004EB38
:100BA0004401064A02EB8100FFF721FE641C202C61
:100BB000F5DB10BD100000200C00002028000020F4
:100BC00010B50446A16901EB4101054A02EB810021
:100BD000211DFFF7EDFD0348A169FFF7FAFC10BDE9
:100BE000280000200C00002010B50446A16901EB8C
:100BF00041010A4A02EB8100211DFFF7FDFDA169B9
:100C000001EB4101054A02EB8100FFF7E7FD18B94E
:100C10000348A169FFF7A4FC10BD000028000020D4
:100C20000C0000204FF08050014908607047000020
:100C300004ED00E070B5FFF7F9FE0646264845686A
:100C400013E0A5F11004E068401EE06060B9606B3D
:100C500020B1012200212046FFF7F7FC204600F0DA
:100C600051F82046FFF7ACFF6D681B488542E8D17C
:100C70001A480068006A401E18490968086228BBC3
:100C800016490968896901EB4101154A02EB8100A7
:100C9000FFF7A4FDD0B111490968896901EB410151
:100CA0000F4A02EB8100FFF7B1FD0C490968896921
:100CB00001EB41010A4A02EB810008490968091D5C
:100CC000FFF782FD0A200549096808623046FFF7F0
:100CD000B3FEFFF739FF70BDA8010020000000201F
:100CE0002800002070B504460D46E56004F11001AF
:100CF0000348FFF769FDE06940F00400E06170BD62
:100D0000A801002010B5044604F110010348FFF7C4
:100D100073FDE06920F00400E06110BDA80100202F
:100D20000A20FFF739FE14220D490E48FFF79FFDF8
:100D300014220D490D48FFF79AFD0022214609486B
:100D4000FFF7F0FD00BF0020094908600120FFF710
:100D50004FFE012006490860FFF74AFEF3E7000056
:100D60003C530020F45200208C53002018530020E4
:100D700014000020002400BF002008490860012062
:100D8000FFF736FE012005490860FFF731FE002C11
:100D9000F2D10348FFF747FD0124EDE718000020DA
:100DA000F452002000BF002400BF09E00B4840F8C7
:100DB000244000EB840100220948FFF767FD641C12
:100DC000142CF3DB0020074908600120FFF710FE18
:100DD000012004490860FFF70BFEE4E72C540020D3
:100DE000185300201C00002000BF002221460548A7
:100DF000FFF798FD0449206808600248FFF726FDC8
:100E0000F3E700001853002020000020FF0001003D
:100E100002000100030001000200010004000100C3
:100E200002000100030001000200010005000100B2
:100E300002000100030001000200010004000100A3
:100E40000200010003000100020001000600010091
:100E50000200010003000100020001000400010083
:100E60000200010003000100020001000500010072
:100E70000200010003000100020001000400010063
:100E80000200010003000100020001000700010050
:100E90000200010003000100020001000400010043
:100EA0000200010003000100020001000500010032
:100EB0000200010003000100020001000400010023
:100EC0000200010003000100020001000600010011
:100ED0000200010003000100020001000400010003
:100EE00002000100030001000200010005000100F2
:100EF00002000100030001000200010004000100E3
:100F00000200010003000100020001002C0F00009C
:100F10000000002028000000FC030000540F000027
:100F200028000020585800001804000000000000AD
:100F300000000000000000000000000000000000B1
:100F400000000000000000000000000000000000A1
:040F5000001BB700CB
:04000005000003C133
:00000001FF
