:020000040000FA
:10000000F83400208D0400009504000097040000DF
:10001000990400009B0400009D0400000000000003
:100020000000000000000000000000009F0400002D
:10003000A1040000000000005D040000ED040000C9
:10004000A7040000A9040000AB040000AD040000F8
:10005000AF040000B1040000B3040000B5040000C8
:10006000B7040000B9040000000000000000000018
:100070000000000000000000000000000000000080
:100080000000000000000000000000000000000070
:100090000000000000000000000000000000000060
:1000A0000000000000000000000000000000000050
:1003C00000F002F800F03AF80AA090E8000C82442D
:1003D0008344AAF10107DA4501D100F02FF8AFF20A
:1003E000090EBAE80F0013F0010F18BFFB1A43F013
:1003F000010318477806000098060000103A24BF51
:1004000078C878C1FAD8520724BF30C830C144BF79
:1004100004680C60704700000023002400250026BB
:10042000103A28BF78C1FBD8520728BF30C148BF57
:100430000B6070471FB51FBD10B510BDDFF80CD0A5
:10044000FFF7F8FF00F068F800F03FF8F8340020FC
:1004500003B4FFF7F1FF03BC00F042F8EFF30980AB
:1004600020B120E9F00F07490968086005480649EE
:100470000A6802601068B0E8F00F80F309884EF057
:10048000040E704700000020040000200B48804745
:100490000B480047FEE7FEE7FEE7FEE7FEE7FEE764
:1004A000FEE7FEE7FEE7FEE7FEE7FEE7FEE7FEE724
:1004B000FEE7FEE7FEE7FEE7FEE70000F5040000CA
:1004C000C103000070477047704710B50446AFF392
:1004D00000802046BDE81040FFF7BABF704700001B
:1004E00001491820ABBEFEE72600020010B500F05F
:1004F000DDF910BD03480449086004480449086058
:10050000704700000000000008ED00E0001BB7008D
:100510001C00002000BFFEE708B500F093F900F0D2
:10052000E1F8154800234FF01132144900901448A7
:1005300000F0FAF8134801234FF0223212490090DC
:10054000124800F0F1F80E48114908600F48486061
:1005500010481F23002210490090104800F0E4F8D2
:100560000E480F49086000F0D1F80E49086000F00D
:1005700039F9002008BD0000DC1000202909000026
:10058000AC000020DC2000204D090000C400002049
:1005900020000020F430002015050000DC200020A1
:1005A000080000200400002001238B4002689A43C9
:1005B0000260704700B50146087818B10878134A00
:1005C000105C00BD088800F47F4030B10888C0F39B
:1005D00007200E4A105C0830F3E7086800F47F003B
:1005E00030B10868C0F30740084A105C1030E8E7F3
:1005F000086800F07F4028B10868000E034A105CCC
:100600001830DEE700F007F8DBE700006C090000B7
:100610000021016070472020704701238B40026851
:100620001A4302607047486002680A6002685160BD
:1006300001608268521C8260704740600060002147
:1006400081607047D1E900325A60D1E900231A6015
:100650008268521E826070474060006070470000F0
:1006600030B502461148006850434FF47A71B0FB30
:10067000F1F0401E4FF0E0214861481707210028A3
:1006800004DB4B071C0E0A4B1C5406E04B071D0EE7
:10069000084B00F00F04241F1D5500BF00204FF031
:1006A000E02188610720086130BD00001C000020A7
:1006B00000E400E018ED00E070B5044600F01AF820
:1006C000054621460648006800F010F90448006815
:1006D00000F0D4F8284600F013F800F091F870BD4F
:1006E0000000002010B50248FFF7A7FF10BD000072
:1006F000A000002000BFEFF31081084672B67047DB
:1007000000BF80F3108800BF7047000010B5044898
:10071000FFF750FF0446034850F8240010BD0000C6
:100720000C000020200000202DE9F04105460F4676
:1007300090461E46069C4FF08071201F04460160C3
:10074000201F044607601421201F04460160122167
:10075000201F044601600321201F0446016002217E
:10076000201F044601600121201F04460160201F54
:100770000446C0F800801121201F044601601021AA
:10078000201F044601600921201F04460160082142
:10079000201F044601600721201F04460160062136
:1007A000201F044601600521201F0446016004212A
:1007B000201F044601602C60002068602E61686183
:1007C00005F10800FFF748FF044840F8265031467D
:1007D0000348FFF722FFBDE8F08100002000002061
:1007E0000C000020002080F3098800BFFF2003498F
:1007F0000870C80601491E390860704722ED00E004
:1008000070B5FFF777FF05460B480078002803DD39
:100810002846FFF775FF70BDFFF778FF04460748CD
:100820000068844203D00648046000F037F8284688
:10083000FFF766FF00BFEEE7100000200000002079
:100840000400002010B50020024908700248FFF79C
:10085000DFFE10BD100000200C00002010B5044683
:100860000449206941F8204003482169FFF7D5FE7B
:1008700010BD0000200000200C00002010B5044630
:100880000020044A216942F8210003482169FFF74A
:100890008BFE10BD200000200C0000204FF0805087
:1008A000014908607047000004ED00E070B5FFF7F3
:1008B00021FF06460C4844680CE0A4F1080568686E
:1008C000401E686028B9284600F020F82846FFF747
:1008D000C5FF646804488442EFD13046FFF710FF3B
:1008E000FFF78EFF70BD0000A000002070B5044629
:1008F0000D46656004F108010348FFF794FE606946
:1009000040F00200606170BDA000002010B50446F8
:1009100004F108010348FFF795FE606920F002002A
:10092000606110BDA00000200A20FFF799FE00BF03
:100930000020054908600120FFF7BEFE01200249A2
:100940000860FFF7B9FEF3E71400002000BF0020A5
:10095000054908600120FFF7AFFE01200249086049
:10096000FFF7AAFEF3E7000018000020FF000100D7
:100970000200010003000100020001000400010068
:100980000200010003000100020001000500010057
:100990000200010003000100020001000400010048
:1009A0000200010003000100020001000600010036
:1009B0000200010003000100020001000400010028
:1009C0000200010003000100020001000500010017
:1009D0000200010003000100020001000400010008
:1009E00002000100030001000200010007000100F5
:1009F00002000100030001000200010004000100E8
:100A000002000100030001000200010005000100D6
:100A100002000100030001000200010004000100C7
:100A200002000100030001000200010006000100B5
:100A300002000100030001000200010004000100A7
:100A40000200010003000100020001000500010096
:100A50000200010003000100020001000400010087
:100A60000200010003000100020001008C0A0000E6
:100A70000000002020000000FC030000AC0A000081
:100A800020000020D83400001804000000000000FE
:100A90000000000000000000000000000000000056
:0C0AA0000000000000000000001BB70078
:04000005000003C133
:00000001FF
