:020000040000FA
:10000000403400208D040000950400009704000097
:10001000990400009B0400009D0400000000000003
:100020000000000000000000000000009F0400002D
:10003000A1040000000000005D040000ED040000C9
:10004000A7040000A9040000AB040000AD040000F8
:10005000AF040000B1040000B3040000B5040000C8
:10006000B7040000B9040000000000000000000018
:100070000000000000000000000000000000000080
:100080000000000000000000000000000000000070
:100090000000000000000000000000000000000060
:1000A0000000000000000000000000000000000050
:1003C00000F002F800F03AF80AA090E8000C82442D
:1003D0008344AAF10107DA4501D100F02FF8AFF20A
:1003E000090EBAE80F0013F0010F18BFFB1A43F013
:1003F000010318476C0400008C040000103A24BF6D
:1004000078C878C1FAD8520724BF30C830C144BF79
:1004100004680C60704700000023002400250026BB
:10042000103A28BF78C1FBD8520728BF30C148BF57
:100430000B6070471FB51FBD10B510BDDFF80CD0A5
:10044000FFF7F8FF00F068F800F03FF840340020B4
:1004500003B4FFF7F1FF03BC00F042F8EFF30980AB
:1004600020B120E9F00F07490968086005480649EE
:100470000A6802601068B0E8F00F80F309884EF057
:10048000040E704700000020040000200B48804745
:100490000B480047FEE7FEE7FEE7FEE7FEE7FEE764
:1004A000FEE7FEE7FEE7FEE7FEE7FEE7FEE7FEE724
:1004B000FEE7FEE7FEE7FEE7FEE70000F5040000CA
:1004C000C103000070477047704710B50446AFF392
:1004D00000802046BDE81040FFF7BABF704700001B
:1004E00001491820ABBEFEE72600020010B500F05F
:1004F0005BF910BD034804490860044804490860DA
:10050000704700000000000008ED00E0001BB7008D
:100510003800002000BFFEE710B5124B4FF011323B
:100520001149124800F07DF8114B4FF02232114969
:10053000114800F076F80D48104908600E484860F0
:100540000F4B00220F49104800F06BF80E480F497E
:1005500008600A4800680E49086000F0A7F800200B
:1005600010BD00003C100020F50700002000002016
:100570003C20002019080000280000200C0000206A
:100580003C3000201505000030000020080000204D
:100590000400002030B502461148006850434FF473
:1005A0007A71B0FBF1F0401E4FF0E021486148172E
:1005B0000721002804DB4B071C0E0A4B1C5406E0E5
:1005C0004B071D0E084B00F00F04241F1D5500BFE4
:1005D00000204FF0E02188610720086130BD000055
:1005E0003800002000E400E018ED00E070B504469B
:1005F00000F00CF80546044800684460284600F006
:100600000BF800F061F870BD0000002000BFEFF3B0
:100610001081084672B6704700BF80F3108800BF93
:10062000704730B54FF080751C1F234625601C1F96
:100630002346216014251C1F2346256012251C1FFC
:100640002346256003251C1F2346256002251C1F09
:100650002346256001251C1F234625601C1F2346B9
:10066000226011251C1F2346256010251C1F2346D0
:10067000256009251C1F2346256008251C1F2346CD
:10068000256007251C1F2346256006251C1F2346C1
:10069000256005251C1F2346256004251C1F2346B5
:1006A000256003600024446030BD0000002080F31A
:1006B000098800BFFF2003490870C80601491E3998
:1006C0000860704722ED00E010B5FFF79FFF044679
:1006D0002D4800682D490968884215D12C480068CA
:1006E000406820B92A4800682A49086044E0284840
:1006F0004068406820B926484068264908603BE0C9
:100700002046FFF789FF10BD214800681E4909688F
:10071000884215D11E484068406820B91C4840688E
:100720001C49086028E018480068406820B1174854
:100730000068184908601FE02046FFF76DFFE2E7F8
:100740001348406810490968884215D1104840682C
:10075000406820B90E4800680E4908600CE00A485D
:100760000068406820B1094800680A49086003E051
:100770002046FFF751FFC6E700F00EF82046FFF7CE
:100780004BFF00BFBFE70000000000200800002072
:100790000C000020040000204FF080500149086048
:1007A0007047000004ED00E010B5FFF72FFF04468E
:1007B00000200EE00D4951F82010496841B10B4965
:1007C00051F820104968491E084A52F8202051600B
:1007D000401C0228EEDB06480068401C0449086003
:1007E0002046FFF719FFFFF76FFF10BD0C00002038
:1007F000140000200A20FFF7CDFE00BF00200549AD
:1008000008600120FFF7F2FE012002490860FFF7AF
:10081000EDFEF3E71800002000BFFFF7F7FE0446E7
:100820000D480568002000E0401C4FF6FF7188422B
:10083000FAD3681C084908602046FFF7EDFE002047
:10084000064908600120FFF7D1FE01200349086036
:10085000FFF7CCFEE1E70000140000201C000020A0
:1008600080080000000000203C000000FC030000A5
:10087000BC0800003C000020043400001804000004
:100880000000000000000000000000000000000068
:100890000000000000000000000000000000000058
:1008A0000000000000000000000000000000000048
:0C08B0000000000000000000001BB7006A
:04000005000003C133
:00000001FF
