:020000040000FA
:10000000685700208D04000095040000970400004C
:10001000990400009B0400009D0400000000000003
:100020000000000000000000000000009F0400002D
:10003000A1040000000000005D040000ED040000C9
:10004000A7040000A9040000AB040000AD040000F8
:10005000AF040000B1040000B3040000B5040000C8
:10006000B7040000B9040000000000000000000018
:100070000000000000000000000000000000000080
:100080000000000000000000000000000000000070
:100090000000000000000000000000000000000060
:1000A0000000000000000000000000000000000050
:1003C00000F002F800F03AF80AA090E8000C82442D
:1003D0008344AAF10107DA4501D100F02FF8AFF20A
:1003E000090EBAE80F0013F0010F18BFFB1A43F013
:1003F000010318476808000088080000103A24BF6D
:1004000078C878C1FAD8520724BF30C830C144BF79
:1004100004680C60704700000023002400250026BB
:10042000103A28BF78C1FBD8520728BF30C148BF57
:100430000B6070471FB51FBD10B510BDDFF80CD0A5
:10044000FFF7F8FF00F068F800F03FF86857002069
:1004500003B4FFF7F1FF03BC00F042F8EFF30980AB
:1004600020B120E9F00F07490968086005480649EE
:100470000A6802601068B0E8F00F80F309884EF057
:10048000040E704700000020040000200B48804745
:100490000B480047FEE7FEE7FEE7FEE7FEE7FEE764
:1004A000FEE7FEE7FEE7FEE7FEE7FEE7FEE7FEE724
:1004B000FEE7FEE7FEE7FEE7FEE70000F5040000CA
:1004C000C103000070477047704710B50446AFF392
:1004D00000802046BDE81040FFF7BABF704700001B
:1004E00001491820ABBEFEE72600020010B500F05F
:1004F00073FA10BD034804490860044804490860C1
:10050000704700000000000008ED00E0001BB7008D
:100510002400002000BFFEE708B500F009FA00F053
:100520004FF900F07FF809481F2300220849009086
:10053000084800F06DF907480749086000F054F9D1
:100540000649086000F0C4F9002008BDF41100203D
:1005500015050000B4010020080000200400002060
:1005600001238B4002689A430260704700B5014640
:10057000087818B10878134A105C00BD088800F4A8
:100580007F4030B10888C0F307200E4A105C083065
:10059000F3E7086800F47F0030B10868C0F3074053
:1005A000084A105C1030E8E7086800F07F4028B186
:1005B0000868000E034A105C1830DEE700F007F808
:1005C000DBE700005C0B0000002101607047202089
:1005D000704701238B4002681A430260704770B570
:1005E00004460D4600202070201D00F078F870BDF4
:1005F0002DE9F04104460D46164600F0E9F807469D
:10060000616B081D211D00F06FF800206063A56379
:10061000E663E06920F47F00E061384600F0DEF830
:10062000BDE8F08108B5124800234FF0113211499E
:100630000090114800F0ECF8104801234FF02232EE
:100640000F4900900F4800F0E3F80F4801234FF0E6
:1006500033320E4900900E4800F0DAF80D480123BD
:100660004FF044320C4900900C4800F0D1F808BD1E
:10067000F4220020C50A0000F4110020F43200200A
:10068000FD0A000034120020F44200201D0B00007F
:1006900074120020F45200203D0B0000B412002020
:1006A000426812680A6042684A60426811604160AC
:1006B0008268521C82607047486002680A60026863
:1006C000516001608268521C8260704701468868F0
:1006D0007047014600208A6802B148687047406050
:1006E0000060002181607047D1E900325A60D1E991
:1006F00000231A608268521E826070470146002003
:100700008A683AB148684268116042684A608A68FB
:10071000521E8A60704770B504460E461546022187
:100720002046FFF75CFF2662E56100206061A06162
:10073000206170BD406000607047000030B5024627
:100740001148006850434FF47A71B0FBF1F0401E3D
:100750004FF0E021486148170721002804DB4B07D0
:100760001C0E0A4B1C5406E04B071D0E084B00F0F4
:100770000F04241F1D5500BF00204FF0E0218861A9
:100780000720086130BD00002400002000E400E0E4
:1007900018ED00E070B5044600F01AF80546214651
:1007A0000648006800F070F90448006800F0EEF8B0
:1007B000284600F013F800F099F870BD0000002002
:1007C00010B50248FFF78BFF10BD0000A801002004
:1007D00000BFEFF31081084672B6704700BF80F388
:1007E000108800BF7047000070B50748FFF7BEFED5
:1007F000044604EB4401054A02EB8100FFF769FF60
:100800000546281F70BD00000C00002028000020B5
:100810002DE9F04105460E4617469846069C4FF0D6
:100820008071201F04460160201F044606601421C9
:10083000201F044601601221201F0446016003218D
:10084000201F044601600221201F0446016001218F
:10085000201F04460160201F044607601121201F4D
:10086000044601601021201F044601600921201F59
:10087000044601600821201F044601600721201F53
:10088000044601600621201F044601600521201F47
:10089000044601600421201F044601600A202862EA
:1008A0002C600020E860C5F81880E8616862A862E2
:1008B000E86285F83000281DFFF73CFF05F11000C5
:1008C000FFF738FF284600F04DF8BDE8F081000042
:1008D000002080F3098800BFFF2003490870C80684
:1008E00001491E390860704722ED00E070B5FFF73E
:1008F0006FFF05460B480078002803DD2846FFF708
:100900006DFF70BDFFF770FF044607480068844222
:1009100003D00648046000F057F82846FFF75EFF52
:1009200000BFEEE7100000200000002004000020BF
:1009300010B50020084908700848FFF745FE00245C
:1009400007E004EB4401064A02EB8100FFF7C7FE13
:10095000641C202CF5DB10BD100000200C000020D2
:100960002800002010B50446A16901EB4101054AA9
:1009700002EB8100211DFFF793FE0348A169FFF7F9
:1009800028FE10BD280000200C00002010B50446F1
:10099000A16901EB41010A4A02EB8100211DFFF729
:1009A000A3FEA16901EB4101054A02EB8100FFF7BB
:1009B0008DFE18B90348A169FFF7D2FD10BD0000F4
:1009C000280000200C0000204FF0805001490860F2
:1009D0007047000004ED00E070B5FFF7F9FE064631
:1009E0002648456813E0A5F11004E068401EE06069
:1009F00060B9606B20B1012200212046FFF7F8FDAD
:100A0000204600F051F82046FFF7ACFF6D681B4808
:100A10008542E8D11A480068006A401E18490968F2
:100A2000086228BB16490968896901EB4101154A2A
:100A300002EB8100FFF74AFED0B1114909688969CC
:100A400001EB41010F4A02EB8100FFF757FE0C4911
:100A50000968896901EB41010A4A02EB81000849F2
:100A60000968091DFFF728FE0A2005490968086280
:100A70003046FFF7B3FEFFF739FF70BDA801002035
:100A8000000000202800002070B504460D46E560F7
:100A900004F110010348FFF70FFEE06940F0040085
:100AA000E06170BDA801002010B5044604F11001FA
:100AB0000348FFF719FEE06920F00400E06110BD73
:100AC000A80100200A20FFF739FE1422084909482E
:100AD000FFF721FE00BF0020074908600120FFF753
:100AE00059FE012004490860FFF754FEF3E70000B7
:100AF00018530020F45200201400002000BF0020F2
:100B0000054908600120FFF745FE01200249086001
:100B1000FFF740FEF3E700001800002000BF0020B0
:100B2000054908600120FFF735FE012002490860F1
:100B3000FFF730FEF3E700001C00002000BF00209C
:100B4000054908600120FFF725FE012002490860E1
:100B5000FFF720FEF3E7000020000020FF00010067
:100B60000200010003000100020001000400010076
:100B70000200010003000100020001000500010065
:100B80000200010003000100020001000400010056
:100B90000200010003000100020001000600010044
:100BA0000200010003000100020001000400010036
:100BB0000200010003000100020001000500010025
:100BC0000200010003000100020001000400010016
:100BD0000200010003000100020001000700010003
:100BE00002000100030001000200010004000100F6
:100BF00002000100030001000200010005000100E5
:100C000002000100030001000200010004000100D5
:100C100002000100030001000200010006000100C3
:100C200002000100030001000200010004000100B5
:100C300002000100030001000200010005000100A4
:100C40000200010003000100020001000400010095
:100C50000200010003000100020001007C0C000002
:100C60000000002028000000FC030000A40C00008D
:100C70002800002040570000180400000000000079
:100C80000000000000000000000000000000000064
:100C90000000000000000000000000000000000054
:040CA000001BB7007E
:04000005000003C133
:00000001FF
