:020000040000FA
:10000000B85600208D0400009504000097040000FD
:10001000990400009B0400009D0400000000000003
:100020000000000000000000000000009F0400002D
:10003000A1040000000000005D040000ED040000C9
:10004000A7040000A9040000AB040000AD040000F8
:10005000AF040000B1040000B3040000B5040000C8
:10006000B7040000B9040000000000000000000018
:100070000000000000000000000000000000000080
:100080000000000000000000000000000000000070
:100090000000000000000000000000000000000060
:1000A0000000000000000000000000000000000050
:1003C00000F002F800F03AF80AA090E8000C82442D
:1003D0008344AAF10107DA4501D100F02FF8AFF20A
:1003E000090EBAE80F0013F0010F18BFFB1A43F013
:1003F000010318474809000068090000103A24BFAB
:1004000078C878C1FAD8520724BF30C830C144BF79
:1004100004680C60704700000023002400250026BB
:10042000103A28BF78C1FBD8520728BF30C148BF57
:100430000B6070471FB51FBD10B510BDDFF80CD0A5
:10044000FFF7F8FF00F068F800F03FF8B85600201A
:1004500003B4FFF7F1FF03BC00F042F8EFF30980AB
:1004600020B120E9F00F07490968086005480649EE
:100470000A6802601068B0E8F00F80F309884EF057
:10048000040E704700000020040000200B48804745
:100490000B480047FEE7FEE7FEE7FEE7FEE7FEE764
:1004A000FEE7FEE7FEE7FEE7FEE7FEE7FEE7FEE724
:1004B000FEE7FEE7FEE7FEE7FEE70000F5040000CA
:1004C000C103000070477047704710B50446AFF392
:1004D00000802046BDE81040FFF7BABF704700001B
:1004E00001491820ABBEFEE72600020010B500F05F
:1004F000C1FA10BD03480449086004480449086073
:10050000704700000000000008ED00E0001BB7008D
:100510002400002000BFFEE708B500F035FA00F027
:100520001DF900F05DF809481F23002208490090DA
:10053000084800F07DF907480749086000F064F9B1
:100540000649086000F0F0F9002008BDE81100201D
:1005500015050000B4010020080000200400002060
:1005600001238B4002689A430260704700B5014640
:10057000087818B10878134A105C00BD088800F4A8
:100580007F4030B10888C0F307200E4A105C083065
:10059000F3E7086800F47F0030B10868C0F3074053
:1005A000084A105C1030E8E7086800F07F4028B186
:1005B0000868000E034A105C1830DEE700F007F808
:1005C000DBE700003C0C00000021016070472020A8
:1005D000704701238B4002681A4302607047000095
:1005E00008B5124800234FF011321149009011480C
:1005F00000F01EF9104801234FF022320F490090FD
:100600000F4800F015F90F4800234FF033320E4920
:1006100000900E4800F00CF90D4801234FF04432D1
:100620000C4900900C4800F003F908BDB8220020E6
:10063000750B0000E8110020B8320020AD0B00005F
:100640001C120020B8420020DD0B000050120020D8
:10065000B85200200D0C000084120020426812687D
:100660000A6042684A604268116041608268521CB8
:1006700082607047486002680A60026851600160E9
:100680008268521C82607047014688687047014644
:1006900000208A6802B1486870474060006000210D
:1006A00081607047D1E900325A60D1E900231A60B5
:1006B0008268521E82607047014600208A683AB103
:1006C00048684268116042684A608A68521E8A60BF
:1006D000704740600060704730B5024611480068BE
:1006E00050434FF47A71B0FBF1F0401E4FF0E0211F
:1006F000486148170721002804DB4B071C0E0A4BF2
:100700001C5406E04B071D0E084B00F00F04241F7D
:100710001D5500BF00204FF0E021886107200861CF
:1007200030BD00002400002000E400E018ED00E0EF
:1007300070B5044600F036F80546214606480068C4
:1007400000F0F4F90448006800F06AF9284600F067
:100750002FF800F0F7F870BD0000002010B5024837
:10076000FFF79BFF10BD0000A801002010B500F0AE
:1007700019F804460A48006800F034F9084800688F
:10078000806A30B1064A1268D06A054A1268916AD6
:10079000884700F0D7F8204600F00AF810BD0000A6
:1007A0000000002000BFEFF31081084672B67047CA
:1007B00000BF80F3108800BF7047000070B504468A
:1007C000FFF7F0FF0546207F00F0040018B1204637
:1007D00000F0A2F906E0207F00F0080010B92046E2
:1007E00000F000F9A06A10B1D4E90A108847054862
:1007F0000068A04201D100F0A5F82846FFF7D8FF15
:1008000070BD00000000002070B50748FFF7AEFE85
:10081000044604EB4401054A02EB8100FFF737FF71
:100820000546281F70BD00000C0000202800002095
:100830002DE9F04105460E4617469846069C4FF0B6
:100840008071201F04460160201F044606601421A9
:10085000201F044601601221201F0446016003216D
:10086000201F044601600221201F0446016001216F
:10087000201F04460160201F044607601121201F2D
:10088000044601601021201F044601600921201F39
:10089000044601600821201F044601600721201F33
:1008A000044601600621201F044601600521201F27
:1008B000044601600421201F044601600A202862CA
:1008C0002C600020E860C5F81880E8616862A862C2
:1008D000E86285F83000281DFFF7FBFE05F11000E7
:1008E000FFF7F7FE284600F069F8BDE8F081000048
:1008F00070B5FFF757FF05460448006890F8304090
:100900002846FFF755FF204670BD0000000000207C
:1009100070B50446FFF746FF0546012084F8300015
:100920002846FFF745FF70BD002080F3098800BF0F
:10093000FF2003490870C80601491E390860704746
:1009400022ED00E070B5FFF72DFF05460B4800785B
:10095000002803DD2846FFF72BFF70BDFFF754FF8B
:10096000044607480068844203D00648046000F04B
:1009700079F82846FFF71CFF00BFEEE710000020C3
:10098000000000200400002010B500200849087075
:100990000848FFF719FE002407E004EB4401064A6B
:1009A00002EB8100FFF779FE641C202CF5DB10BD03
:1009B000100000200C0000202800002010B5044684
:1009C000A16901EB4101054A02EB8100211DFFF7FE
:1009D00045FE0348A169FFF7FCFD10BD280000207B
:1009E0000C00002010B50446A16901EB41010A4A40
:1009F00002EB8100211DFFF755FEA16901EB4101CA
:100A0000054A02EB8100FFF73FFE18B90348A169D0
:100A1000FFF7A6FD10BD0000280000200C000020FC
:100A200010B50446A16901EB41010A4A02EB8100BD
:100A3000211DFFF737FEA16901EB4101054A02EBD9
:100A40008100FFF721FE18B90348A169FFF788FD6F
:100A500010BD0000280000200C0000208162C2624E
:100A6000704700004FF08050014908607047000057
:100A700004ED00E070B5FFF795FE06462348446894
:100A80000CE0A4F11005E868401EE86028B928468B
:100A900000F05CF82846FFF791FF64681B48844229
:100AA000EFD11B480068006A401E194909680862B6
:100AB00028BB17490968896901EB4101154A02EB16
:100AC0008100FFF7E1FDD0B111490968896901EBA7
:100AD0004101104A02EB8100FFF7EEFD0C49096865
:100AE000896901EB41010B4A02EB81000849096861
:100AF000091DFFF7BFFD0A20054909680862304655
:100B0000FFF756FEFFF71EFF70BD0000A801002092
:100B1000000000202800002010B5044604F1100158
:100B20000148FFF7BFFD10BDA801002070B50446C5
:100B30000D46E56004F110010348FFF79BFDE069F5
:100B400040F00400E06170BDA801002010B504462B
:100B500004F110010348FFF7A5FDE06920F004004F
:100B6000E06110BDA80100200021014A116070471A
:100B7000140000200A20FFF7AFFD002208490948B1
:100B80000068FFF76BFF00BF0020074908600120E5
:100B9000FFF7CEFD012004490860FFF7C9FDF3E728
:100BA000690B00000000002014000020002400BF9A
:100BB0000020084908600120FFF7BAFD012005491F
:100BC0000860FFF7B5FD002CF2D10348FFF7F6FDF2
:100BD0000124EDE718000020E811002000BFFFF716
:100BE00087FE20B1002008490860FFF7BFFD002004
:100BF000054908600120FFF79BFD012002490860BC
:100C0000FFF796FDEBE700001C000020002400BF6A
:100C10000020084908600120FFF78AFD01200549EE
:100C20000860FFF785FD002CF2D10348FFF770FE46
:100C30000124EDE72000002050120020FF000100F9
:100C40000200010003000100020001000400010095
:100C50000200010003000100020001000500010084
:100C60000200010003000100020001000400010075
:100C70000200010003000100020001000600010063
:100C80000200010003000100020001000400010055
:100C90000200010003000100020001000500010044
:100CA0000200010003000100020001000400010035
:100CB0000200010003000100020001000700010022
:100CC0000200010003000100020001000400010015
:100CD0000200010003000100020001000500010004
:100CE00002000100030001000200010004000100F5
:100CF00002000100030001000200010006000100E3
:100D000002000100030001000200010004000100D4
:100D100002000100030001000200010005000100C3
:100D200002000100030001000200010004000100B4
:100D30000200010003000100020001005C0D000040
:100D40000000002028000000FC030000840D0000CB
:100D50002800002090560000180400000000000049
:100D60000000000000000000000000000000000083
:100D70000000000000000000000000000000000073
:040D8000001BB7009D
:04000005000003C133
:00000001FF
